:100000000C940E030C9476200C94A3200C94D02016
:100010000C94FD200C9436030C9436030C94360398
:100020000C9436030C9436030C94CA290C94512A70
:100030000C9436030C9436030C9436030C9436035C
:100040000C9436030C9436030C9436030C9436034C
:100050000C9436030C9436030C9436030C942A212A
:100060000C9436030C944D240C949B240C9436036E
:100070000C9436030C9436030C9436030C9436031C
:100080000C9436030C9436030C9436030C9436030C
:100090000C9436030C9436030C9436030C943603FC
:1000A0000C9436030C9436030C9436032076696165
:1000B00020627573200053656E742061206D657336
:1000C00073616765206F6E20545842007D007B711C
:1000D00075657565436F756E743A00227D007B22ED
:1000E0006576656E74223A2273657474696E6773FF
:1000F000222C2022656570726F6D223A2200227DCB
:1001000000222C20226E65787454784275666665EC
:1001100072223A2200222C2022696E7465223A2231
:1001200000222C20226572726F72223A2200222C49
:100130002022737461747573223A2200222C2022CB
:1001400063616E6374726C223A22007B2265223AEC
:1001500022627573646762222C20226E616D6522B3
:100160003A2200227D007B226576656E74223A2257
:1001700076657273696F6E222C20226E616D652226
:100180003A2243414E42757320547269706C652067
:100190004D617A6461222C202276657273696F6EDC
:1001A000223A22302E322E30222C20226D656D6FA5
:1001B0007279223A22007D007B226576656E742278
:1001C0003A226C6F6742757346696C746572222CB3
:1001D00020226D6F6465223A2000227D007B22651B
:1001E00076656E74223A22656570726F6D44617433
:1001F00061222C2022726573756C74223A2266612A
:10020000696C757265222C20226368756E6B223AC8
:1002100022007B226576656E74223A2265657072D3
:100220006F6D53617665222C2022726573756C7434
:10023000223A2273756363657373227D00227D0009
:100240007B226576656E74223A22656570726F6DE9
:1002500044617461222C2022726573756C74223A99
:100260002273756363657373222C20226368756E35
:100270006B223A22007D002C202266696C74657224
:10028000223A20007B226576656E74223A226C6FDA
:10029000674D6F6465222C20226D6F6465223A20C1
:1002A0000044657270696E67203920446572706918
:1002B0006E672031302044657270696E672031317D
:1002C0002044657270696E67203132204465727017
:1002D000696E672031332044657270696E67203122
:1002E000342044657270696E672031352044657230
:1002F00070696E67203136210044657270696E67DF
:1003000020312044657270696E6720322044657226
:1003100070696E6720332044657270696E6720349F
:100320002044657270696E6720352044657270697B
:100330006E6720362044657270696E6720372044EE
:10034000657270696E6720382100225D7D7D002214
:100350002C2200222C227061796C6F6164223A5B3E
:100360002200222C2274696D657374616D70223ACB
:100370002200222C226964223A2200222C226C655F
:100380006E677468223A2200222C226368616E6EC6
:10039000656C223A22007B227061636B6574223A9D
:1003A000207B22737461747573223A22007B22656C
:1003B00076656E74223A22656570726F6D52657350
:1003C0006574222C2022726573756C74223A227334
:1003D000756363657373227D0000000000240027AD
:1003E000002A002D00300000000000250028002B0E
:1003F000002E003100000000002300260029002C00
:10040000002F000404040404030405020202020491
:10041000030202020206060606060604040202029F
:1004200004040802011040804010204080408008F1
:100430000204018040201002011080102040400082
:1004400000000200080E0000030401000B00000081
:10045000000000000000000000000000000706058A
:10046000040100080A0B0C0D09080B00020202012E
:10047000000904000001020200000524001001052B
:100480002401010104240206052406000107058158
:100490000310004009040100020A000000070502E1
:1004A0000240000007058302400000040309042203
:1004B00003410072006400750069006E006F002047
:1004C000004C0065006F006E006100720064006FF8
:1004D000001803410072006400750069006E006F2F
:1004E0000020004C004C00430012010002000000FC
:1004F0004041233680000101020001120100020286
:100500000000404123368000010102000100C1804B
:1005100081C105010902A1010901A10085010509A7
:100520001901290315002501950375018102950123
:100530007505810305010930093109381581257FC9
:10054000750895038106C0C005010906A101850251
:10055000050719E029E715002501750195088102B5
:100560009501750881039506750815002565050731
:10057000190029658100C009040200010300000080
:1005800009210101000122650007058403400001E3
:1005900000000000000000002A2B280000000000DE
:1005A000000000000000000000000000000000004B
:1005B0002C9EB4A0A1A2A434A6A7A5AE362D373890
:1005C000271E1F20212223242526B333B62EB7B899
:1005D0009F8485868788898A8B8C8D8E8F90919257
:1005E000939495969798999A9B9C9D2F3130A3ADA3
:1005F000350405060708090A0B0C0D0E0F10111221
:10060000131415161718191A1B1C1DAFB1B0B5001D
:10061000CB09812307260629F42CC40911241FBE07
:10062000CFEFDAE0DEBFCDBF13E0A0E0B1E0E2E360
:10063000F1E602C005900D92A03EB107D9F716E091
:10064000A0EEB3E001C01D92A03EB107E1F716E0B5
:10065000CAE1D6E004C02297FE010E945130C031A9
:10066000D107C9F70E945D260C948C300C940000D1
:10067000FB01DC0102C001900D9241505040D8F7BF
:100680000895FB01DC0101900D920020E1F708952F
:10069000A0E0B0E0EEE4F3E00C945F307C01EB010D
:1006A0008A01690109C0CE012196F6010995F70179
:1006B00081937F010150104001151105A1F7CDB7BD
:1006C000DEB7E8E00C947B30A0E0B0E0EAE6F3E0CF
:1006D0000C945F30EC017B018A01690109C0CE01F5
:1006E0002196F70161917F01F601099501501040B3
:1006F00001151105A1F7CDB7DEB7E8E00C947B300A
:10070000AEE0B0E0E6E8F3E00C9463300D891E89BA
:1007100086E08C831A8309838FEF9FE79E838D8306
:100720009E01275E3F4FCE0101966F89788DA9010A
:100730000E94A4032F813885020F131FF801108235
:100740002E96E4E00C947F30ABE0B0E0EAEAF3E010
:100750000C9455303C012B015A01FC011782168282
:10076000838181FD03C06FEF7FEFC6C19AE0892EC0
:100770001E010894211C311CF3012381F20123FD89
:10078000859123FF81912F01882309F4B2C185321D
:1007900039F423FD859123FF81912F01853229F4BE
:1007A00090E0B3010E949705E7CF982FFF24EE2435
:1007B0009924FFE1FF15D0F09B3269F09C3228F4B8
:1007C000903259F0933291F40EC09D3249F090333B
:1007D00069F441E024C052E0F52A84E0F82A28C0F8
:1007E00098E0F92A25C0E0E1FE2A22C0F7FC29C0E2
:1007F000892F80538A3070F4F6FE05C0989C902CA7
:100800001124980E15C0E89CE02C1124E80EF0E2AB
:10081000FF2A0EC09E3229F4F6FC6BC140E4F42A94
:1008200007C09C3619F450E8F52A02C0983649F4FE
:10083000F20123FD959123FF91912F01992309F056
:10084000B8CF892F8554833018F08052833038F424
:1008500044E050E0A40EB51E5FE359830FC0933609
:1008600031F0933779F0933509F056C020C0F50187
:100870008081898342E050E0A40EB51E610101E051
:1008800010E012C0F501C080D180F6FC03C06FEF0C
:100890007FEF02C0692D70E042E050E0A40EB51E6B
:1008A000C6010E948C058C015FE7F52214C0F5019A
:1008B000C080D180F6FC03C06FEF7FEF02C0692DCE
:1008C00070E042E050E0A40EB51EC6010E94810512
:1008D0008C0150E8F52AF3FE07C01AC080E290E0D0
:1008E000B3010E949705EA948E2D90E0081719072E
:1008F000A8F30EC0F601F7FC8591F7FE81916F0118
:1009000090E0B3010E949705E110EA940150104075
:100910000115110579F7EAC0943611F0993669F599
:10092000F7FE08C0F501208131814281538184E0C6
:1009300090E00AC0F501808191819C01442737FD38
:100940004095542F82E090E0A80EB91E9FE6F92250
:1009500057FF09C050954095309521953F4F4F4F17
:100960005F4FE0E8FE2ACA01B901A1012AE030E0A8
:100970000E94C305D82ED21840C0953729F41F2DE8
:100980001F7E2AE030E01DC01F2D197F9F3661F0C9
:10099000903720F4983509F0ACC00FC0903739F08B
:1009A000983709F0A6C004C028E030E00AC0106102
:1009B00014FD146020E130E004C014FD166020E155
:1009C00032E017FF08C0F501608171818281938157
:1009D00044E050E008C0F50180819181BC0180E0D5
:1009E00090E042E050E0A40EB51EA1010E94C305B4
:1009F000D82ED2188FE7F82EF122F6FE0BC05EEF4C
:100A0000F522D91438F4F4FE07C0F2FC05C08FEECD
:100A1000F82202C01D2D01C0192DF4FE0DC0FE01EB
:100A2000ED0DF11D8081803319F499EEF92208C093
:100A30001F5FF2FE05C003C08F2D867809F01F5F8F
:100A40000F2DF3FC14C0F0FE0FC01E1510F09D2CEE
:100A50000BC09D2C9E0C911A1E2D06C080E290E0CA
:100A6000B3010E9497051F5F1E15C0F304C01E1539
:100A700010F4E11A01C0EE2404FF0FC080E390E0FF
:100A8000B3010E94970502FF1DC001FD03C088E766
:100A900090E00EC088E590E00BC0802F867891F042
:100AA00001FF02C08BE201C080E2F7FC8DE290E022
:100AB000B3010E94970506C080E390E0B3010E9455
:100AC00097059A94D914C0F3DA94F101ED0DF11D54
:100AD000808190E0B3010E949705DD20A9F706C050
:100AE00080E290E0B3010E949705EA94EE20C1F7FE
:100AF00043CEF30166817781CB012B96E2E10C9422
:100B00007130FC010590615070400110D8F780955C
:100B100090958E0F9F1F0895FC01615070400190C9
:100B20000110D8F7809590958E0F9F1F08950F9311
:100B30001F93CF93DF938C01EB018B8181FF1BC04F
:100B400082FF0DC02E813F818C819D81281739073E
:100B500064F4E881F9810193F983E88306C0E885AC
:100B6000F985802F0995892B31F48E819F8101961B
:100B70009F838E8302C00FEF1FEFC801DF91CF91DB
:100B80001F910F910895FA01AA27283051F12031C1
:100B900081F1E8946F936E7F6E5F7F4F8F4F9F4F11
:100BA000AF4FB1E03ED0B4E03CD0670F781F891F53
:100BB0009A1FA11D680F791F8A1F911DA11D6A0F21
:100BC000711D811D911DA11D20D009F468943F91D4
:100BD0002AE0269F11243019305D3193DEF6CF01D3
:100BE0000895462F4770405D4193B3E00FD0C9F799
:100BF000F6CF462F4F70405D4A3318F0495D31FD06
:100C00004052419302D0A9F7EACFB4E0A695979558
:100C1000879577956795BA95C9F70097610571052E
:100C200008959B01AC010A2E069457954795379578
:100C30002795BA95C9F7620F731F841F951FA01DD2
:100C400008959C01F999FECF32BD21BDF89A80B577
:100C500008959C01F999FECF1FBA32BD21BD60BD38
:100C60000FB6F894FA9AF99A0FBE0895AC01FB01F9
:100C7000858596858230910541F08330910539F064
:100C8000019759F483E090E004C0178606C081E024
:100C900090E09687858781E08787DA0180E101907F
:100CA0000D928150E1F7CA010895EF92FF920F93E0
:100CB0001F93CF93DF938C017B01C0E0D0E011C084
:100CC000A0913702B0913802ED91FC911197068006
:100CD000F781E02DCD010995F801EC0FFD1F808310
:100CE0002196C701CE15DF0558F3DF91CF911F91F3
:100CF0000F91FF90EF9008950DC0E0913702F091B1
:100D00003802A081B18116962D913C911797CF01A1
:100D1000F9010995E0913702F0913802A081B18183
:100D200014962D913C911597CF01F9010995892BC6
:100D300021F708952F923F924F925F926F927F9288
:100D40008F929F92AF92BF92CF92DF92EF92FF92DB
:100D50000F931F93DF93CF93CDB7DEB760970FB696
:100D6000F894DEBF0FBECDBF8B879C877A876987DB
:100D7000209166023091670238872F83D9019C91B8
:100D800082E2989F60011124EAEEF3E0CE0EDF1EAE
:100D90001A821982292F30E03E872D87B0C0D601F4
:100DA00012962C911297222329F413968C91882362
:100DB00009F49CC0F601838190E00896722E6624A7
:100DC000860D971DA985BA8511962D913C91129794
:100DD0002817390709F08AC0DA0195E0AA0FBB1F6E
:100DE0009A95E1F7440F551FA40FB51FAC50BC4FA7
:100DF00020E030E012C0E985FA85E80FF11D90810E
:100E000011968C911197981709F070C02E5F3F4F83
:100E100012962630310509F48FC08C91882359F73A
:100E20008BC08481362E2224B101680F711DD6013A
:100E30005296BC91BE83F601F389FD83D601549688
:100E40005C905497442455968C915597F201E80F85
:100E5000F11DF88BEF875696FC915697FC835796B9
:100E60002C912B834F855889452B21F481E090E00C
:100E7000988B8F8780E090E00E94F62E7B018C019A
:100E8000AF85B889BD0180E090E00E94F62E9B01FD
:100E9000AC01C801B7010E94622E7B018C019E80CB
:100EA0008824B401BD816B0F711D80E090E00E9429
:100EB000F62E9B01AC01C801B7010E94842F7B0173
:100EC0008C01BC80AA24B501EB816E0F711D80E0FE
:100ED00090E00E94F62E9B01AC01C801B7010E9470
:100EE000FE2D0E94CA2ED6016D937C93E981FA8172
:100EF0003196FA83E98322E230E0C20ED31E4981A3
:100F00005A818D859E85480F591FAF81B8858C9178
:100F100090E00196841795070CF041CF8B859C8556
:100F20009C01D90129853A8580E1F90101909F0151
:100F30000D928150D1F714C0D60150968C915097E4
:100F40008695869586958250E985FA85E80FF11D8C
:100F5000638151968C91803109F463CF70E067CF43
:100F60008B859C8560960FB6F894DEBF0FBECDBF13
:100F7000CF91DF911F910F91FF90EF90DF90CF9075
:100F8000BF90AF909F908F907F906F905F904F90A9
:100F90003F902F900895EF92FF920F931F937C0143
:100FA0000E9472210027F7FC0095102FE60EF71E15
:100FB000081F191FE0922805F092290500932A05C1
:100FC00010932B051F910F91FF90EF900895EF92D2
:100FD000FF920F931F937C010E9472210027F7FC60
:100FE0000095102FE60EF71E081F191FE0926202EF
:100FF000F092630200936402109365021F910F91B7
:10100000FF90EF900895EF92FF920F931F93E0905F
:101010006202F090630200916402109165020E94E6
:1010200072216E157F058007910718F428E432E0DD
:1010300014C0E0902805F090290500912A05109130
:101040002B050E9472216E157F058007910718F00D
:101050002BE332E002C025E532E0C9011F910F9178
:10106000FF90EF90089580E196E060E071E00E94CB
:10107000F92781E080935B05089580E196E06AE0BE
:1010800071E00E94F92781E080935A05089580E17C
:1010900096E064E171E00E94F92781E080935905B0
:1010A0000895FC0180819181009711F00E94F92739
:1010B0008DE061E00E9476228DE061E00E940323D2
:1010C0006AEF70E080E090E00E94D6218DE060E061
:1010D0000E9403236AEF70E080E090E00E94D62136
:1010E000EBCFDF93CF930F92CDB7DEB7CE01019652
:1010F00061E070E00E9455068981813071F488E0DA
:1011000061E00E94032364E670E080E090E00E94CA
:10111000D62188E060E00E9403230F90CF91DF91F9
:101120000895EF92FF920F931F937C018B01FB01B7
:1011300080819181F70191838083FB01828193817A
:10114000F701938382836C5F7F4FC70104960E94EF
:10115000A22CF80183859485F701948783871F91DA
:101160000F91FF90EF900895EF92FF920F931F93CE
:10117000DF93CF93CDB7DEB765970FB6F894DEBF98
:101180000FBECDBF8130910509F0A8C06F5F7F4FC2
:1011900009F0EDC08091E003809321050E94722147
:1011A00060932E0570932F05809330059093310541
:1011B0007E010894E11CF11CC7016EE171E00E9400
:1011C000572C82E395E069E070E044E050E021E0D4
:1011D00030E087010E94EB1DC7010E94AD2C38E072
:1011E000E32EF12CEC0EFD1EC70164E271E00E94BB
:1011F000572C8FE395E06AE070E04CE050E022E08D
:1012000030E087010E94EB1DC7010E94AD2C2FE04A
:10121000E22EF12CEC0EFD1EC7016AE271E00E9485
:10122000572C8CE495E065E070E04BE050E023E063
:1012300030E087010E94EB1DC7010E94AD2C109287
:101240006205109261051092640510926305109278
:101250006605109265051092680510926705109258
:101260005E0510925D0580E290E00E943C1E909326
:10127000600580935F05009731F48DE595E060E3AC
:1012800071E00E94510882E090E0909362058093A3
:10129000610589E695E062E375E00E94910886E7C2
:1012A00095E06FE375E00E94910883E895E06CE4B7
:1012B00075E00E94910880E995E062E375E00E9484
:1012C00091088DE995E06FE375E00E9491088AEA44
:1012D00095E06CE475E00E94910849C0892B09F003
:1012E00046C06F5F7F4F09F042C08EEA95E00E94D2
:1012F000AD2C81EA95E00E94AD2C84E995E00E9436
:10130000AD2C87E895E00E94AD2C8AE795E00E941D
:10131000AD2C8DE695E00E94AD2C80915F059091FB
:1013200060050E94C31E1092600510925F05109226
:101330005E0510925D051092620510926105109293
:10134000640510926305109266051092650510926F
:1013500068051092670580E595E00E94AD2C83E456
:1013600095E00E94AD2C86E395E00E94AD2C659639
:101370000FB6F894DEBF0FBECDBFCF91DF911F91A6
:101380000F91FF90EF90089580E090E06FEF7FEF76
:101390000E94B408089581E090E06FEF7FEF0E9413
:1013A000B4080895AF92BF92CF92DF92EF92FF926E
:1013B0000F931F93CF93DF93EC015B011616170673
:1013C00024F060E671E00E945108C50154E0880FE6
:1013D000991F5A95E1F70E943C1EF82EE92E082F1E
:1013E000192F0115110529F4CE0165E971E00E945C
:1013F00051088F2D9E2D9C01790120E030E01CC00A
:10140000888599856C817D81820F931F0E941A3097
:10141000FC0144E0EE0FFF1F4A95E1F7D701EC0D08
:10142000FD1D80E101900D928150E1F72F5F3F4F4C
:1014300080E190E0E80EF91E8E819F81CA80DB80FA
:1014400028173907ECF2C6010E94C31E1B830A83CA
:10145000198618868E819F819B878A87BD82AC8280
:10146000DF91CF911F910F91FF90EF90DF90CF9080
:10147000BF90AF9008950F931F93CF93DF93EC012C
:10148000162F072F6E817F818C819D8168177907C8
:1014900029F4660F771FCE010E94D2094A855B8529
:1014A000CA0164E0880F991F6A95E1F7EA81FB8120
:1014B000E80FF91F212F302FC901DC0180E10D90C9
:1014C00001928150E1F79A012F5F3F4F3B872A87B6
:1014D0008C819D812817390711F41B861A868E810D
:1014E0009F8101969F838E83DF91CF911F910F91F2
:1014F00008952F923F924F925F926F927F928F92B8
:101500009F92AF92BF92CF92DF92EF92FF920F9392
:101510001F93DF93CF93CDB7DEB7A0970FB6F894A4
:10152000DEBF0FBECDBFE0916602F0916702208161
:10153000A22EBB248501000F111F950145E0220F4B
:10154000331F4A95E1F7020F131F080F191FCC2410
:10155000DD243E010894611C711CB5E04B2E512C1A
:101560004C0E5D1EA8E02A2E33243394F1E18F2E19
:10157000912C8C0E9D1E3FC0F80186818823B1F10D
:101580008081882399F1C3010E941D1EF80180818A
:101590008E871F86F480EE2485819701280F311DE8
:1015A0003B832A83D20180E090E006C001962D9310
:1015B00031968630910519F026812223B9F78C8364
:1015C0002982388A80912C0590912D05D401F30150
:1015D00020E101900D922150E1F7B4010E943B0AF5
:1015E000C4010E94281EC3010E94281E0894C11C29
:1015F000D11C0E5D1F4FE0916602F0916702808161
:1016000090E0019696012A0D3B1D821793070CF07E
:10161000B3CFA0960FB6F894DEBF0FBECDBFCF916B
:10162000DF911F910F91FF90EF90DF90CF90BF90CF
:10163000AF909F908F907F906F905F904F903F9072
:101640002F9008950E94722120912E0530912F0530
:101650004091300550913105225E3F4F4F4F5F4F13
:10166000261737074807590770F40E9472216093C4
:101670002E0570932F05809330059093310588EEE9
:1016800093E00E94790A0895EF92FF920F931F93BF
:10169000DF93CF93CDB7DEB7C056D0400FB6F894E6
:1016A000DEBF0FBECDBF0E9403087C018E010F5F1D
:1016B0001F4FC8010E941D1E83E090E09F878E8708
:1016C00080E992E09B838A8380EC8C83F7018081A0
:1016D0008D8381818E8382818F83838188878481BA
:1016E000898785818A8786818B8788E0898381E0E5
:1016F000888B8091260590912705DE015196F8018F
:1017000020E101900D922150E1F78E010F5E1F4FF5
:10171000B8010E943B0AC8010E94281E8E010F5D7D
:101720001F4FC8010E941D1E83E090E09FA78EA757
:1017300081E992E09BA38AA387E88CA3F7018781C4
:101740008DA380858EA381858FA3828588A78385BD
:1017500089A788E089A381E088AB809126059091D4
:101760002705DE01D196F80120E101900D9221506C
:10177000E1F78E010F5C1F4FB8010E943B0AC801C0
:101780000E94281E8E010F5B1F4FC8010E941D1E64
:1017900081E090E0FE01E25BFF4F918380838FE860
:1017A00092E0FE01EE5BFF4F9183808380ECFE01AF
:1017B000EC5BFF4F8083FE01EB5BFF4F1082FE016D
:1017C000EA5BFF4F1082FE01E95BFF4F108291E060
:1017D000FE01E85BFF4F908387E2FE01E75BFF4F6E
:1017E000808380E1FE01E65BFF4F808380E4FE01A1
:1017F000E55BFF4F808388E0F8018083FE01E05BBA
:10180000FF4F90838091260590912705DE01AF5A06
:10181000BF4FF80120E101900D922150E1F78E01B8
:101820000F5A1F4FB8010E943B0AC8010E94281E90
:10183000CE018F5B9F4F0E94281ECE0181960E9491
:10184000281ECE0101960E94281EC05ADF4F0FB6F7
:10185000F894DEBF0FBECDBFCF91DF911F910F91E6
:10186000FF90EF900895EF92FF920F931F93809156
:1018700021058823B1F1E0903902F0903A02002767
:10188000F7FC0095102F8091220590912305A091DF
:101890002405B0912505E80EF91E0A1F1B1F0E94A2
:1018A0007221E616F70608071907D8F4E0906202DD
:1018B000F090630200916402109165020E9472210F
:1018C000E616F7060807190760F40E94440B0E9409
:1018D00072216093220570932305809324059093D1
:1018E00025051F910F91FF90EF9008950F931F937F
:1018F000DF93CF93CDB7DEB7AC970FB6F894DEBFCA
:101900000FBECDBFCE0101966CE070E00E9455067F
:101910008E01035F1F4FC8010E941D1E89818A8F9F
:101920001B8E9A8180E02B81820F911D9F878E876D
:101930008C81888B8D81898B8E818A8B8F818B8B1B
:1019400088858C8B89858D8B8A858E8B8B858F8BFB
:101950008C858D8781E08C8F80911F05909120056B
:10196000DE015D96F80120E101900D922150E1F732
:101970008E01035E1F4FB8010E943B0AC8010E94FE
:10198000281ECE010D960E94281EAC960FB6F89424
:10199000DEBF0FBECDBFCF91DF911F910F91089594
:1019A000EF92FF920F931F93CF93DF93EC018B0184
:1019B0008F85882309F462C086E061E00E940323DA
:1019C000C8010E94511B7C0181E0E816F104A9F0D6
:1019D00082E0E816F104E9F0E114F10411F080E08E
:1019E0004EC049815A81C801688123969E010E9498
:1019F000741AC8010E94661C17C049815A81C80127
:101A0000688123969E010E941D1AC8010E94521CE3
:101A10000BC049815A81C801688123969E010E94AA
:101A2000C619C8010E943E1C8091B805882311F197
:101A3000809137029091380266EB70E00E949A26FE
:101A40008091370290913802B7014AE050E00E943D
:101A5000E32780913702909138026CEA70E00E948F
:101A60009A260C5F1F4F8091370290913802B8017F
:101A70000E943F2886E060E00E94032381E0DF911E
:101A8000CF911F910F91FF90EF9008958AEB95E011
:101A900062E070E04091E2030E94301E0895E09100
:101AA0006602F09167028081882311F487E001C00B
:101AB000815080830E94460DE0916602F09167029A
:101AC00080810895E0916602F09167022081822F63
:101AD00090E0079714F0108202C02F5F20830E94CD
:101AE000460DE0916602F091670280810895CF93E0
:101AF000DF93C0E0D0E08AEB95E0BE0140E00E94B9
:101B0000301E219682E0C030D807A9F7DF91CF912F
:101B100008950F931F938B0100D000D025E532E08C
:101B2000EDB7FEB732832183948383830E948003C1
:101B30000F900F900F900F90C8010E94CB071F913C
:101B40000F91089540E080912105882309F441E038
:101B5000409321054093E0038AEB95E060E070E05C
:101B60000E94301E80912105882331F08FEC91E096
:101B700060ED77E00E94890D0895EF92FF920F9338
:101B80001F93DF93CF93CDB7DEB72D970FB6F894A1
:101B9000DEBF0FBECDBFDE011196E1EFF1E08DE0BB
:101BA00001900D928150E1F72091E20330E0A9010C
:101BB0004F5F5F4F8DB79EB744970FB6F8949EBFA7
:101BC0000FBE8DBF6DB77EB76F5F7F4F8E010F5F0A
:101BD0001F4FEDB7FEB7128301838CED91E0FB013F
:101BE00093838283DA01AA0FBB1FCA01689414F899
:101BF000880F991F1694E1F7A80FB91FA052BC4F88
:101C00008C91992787FD9095958384837901F5E0E0
:101C1000EE0CFF1CFA95E1F7220F331FE20EF31EC4
:101C200080EE93E0E80EF91EF70183A1992787FD66
:101C30009095FB0197838683F70184A1992787FDFF
:101C40009095FB0191878087F70185A1992787FDF2
:101C50009095FB01938782874F5F5F4FFA0195E074
:101C6000EE0FFF1F9A95E1F7440F551FE40FF51F84
:101C7000E052FC4F8081992787FD9095FB01958765
:101C8000848793968C919397992787FD9095978752
:101C9000868794968C919497992787FD9095918B40
:101CA000808B95968C91992787FD9095938B828B4D
:101CB0000E9480038DB79EB744960FB6F8949EBFDE
:101CC0000FBE8DBFC80160ED77E00E94890D2D9693
:101CD0000FB6F894DEBF0FBECDBFCF91DF911F913D
:101CE0000F91FF90EF9008959F92AF92BF92CF9285
:101CF000DF92EF92FF920F931F93CF93DF93A82E63
:101D0000992E6B0180912105882351F48A2D9C0125
:101D1000D901FB0180E101900D928150E1F76CC285
:101D2000DB0111968D919C9112978F589240D9F4B6
:101D3000E0906202F09063020091640210916502EB
:101D40000E947221E616F7060807190760F480EC76
:101D5000F601838314821582168287E2808780E1F0
:101D6000818781E08787D60111968D919C9112978A
:101D70008059924009F08BC0F6014481242F30E055
:101D800080914802992787FD909528173907E1F53A
:101D9000258130E080914902992787FD9095281789
:101DA000390791F5268130E080914A02992787FD15
:101DB00090952817390741F5278130E080914B0233
:101DC000992787FD909528173907F1F4208530E091
:101DD00080914C02992787FD909528173907A1F427
:101DE000218530E080914D02992787FD9095281735
:101DF000390751F4228530E080914E02992787FD02
:101E000090952817390701F140934802D60115969D
:101E10008C9115978093490216968C911697809312
:101E20004A0217968C91179780934B0218968C91C3
:101E3000189780934C0219968C91199780934D02B4
:101E40001A968C9180934E020E940308FC018081B7
:101E5000D60114968C931497818115968C931597BF
:101E6000828116968C931697838117968C93179779
:101E7000848118968C931897858119968C9319975D
:101E800086811A968C931A9781E01F968C93F6019F
:101E9000818192818159924009F06BC0D6011496DC
:101EA0004C911497242F30E080914F02992787FDA1
:101EB00090952817390779F515962C91159730E0EC
:101EC00080915002992787FD90952817390719F5B9
:101ED00016962C91169730E080915102992787FD34
:101EE000909528173907B9F417962C91179730E079
:101EF00080915202992787FD90952817390759F448
:101F000018962C9130E080915302992787FD909587
:101F10002817390799F040934F02F6018581809385
:101F2000500286818093510287818093520280857E
:101F3000809353028CED95E00E94E7070E9403080E
:101F4000FC018781D60114968C9314978085159691
:101F50008C931597818516968C9316978285179684
:101F60008C931797838518968C93189781E01F960A
:101F70008C932091E203822F90E0079714F0BB240A
:101F800002C0B22EB3946BE3E62E62E0F62EC701D8
:101F900061EF71E00E9441038091E20390E0EC0167
:101FA000CC0FDD1F9C0145E0220F331F4A95E1F75E
:101FB000C20FD31FC052DC4F2985AC014F5F5F4F6A
:101FC00020FF40C00A851B85EDB7FEB73A970FB6D4
:101FD000F894FEBF0FBEEDBF2DB73EB72F5F3F4F4A
:101FE000F282E1828EEF91E0D90113969C938E9359
:101FF0001297FA0195E0EE0FFF1F9A95E1F7440F53
:10200000551FE40FF51FE052FC4F8081992787FD93
:10201000909515969C938E931497C8016AE070E092
:102020000E940630F90177836683C8016AE070E098
:102030000E940630918780870E9480038DB79EB7EB
:102040000A9632C0ADB7BEB718970FB6F894BEBFA8
:102050000FBEADBF1196EDB7FEB7F282E18287E009
:1020600092E013969C938E931297FA0105E0EE0F7F
:10207000FF1F0A95E1F7440F551FE40FF51FE052CB
:10208000FC4F8081992787FD909515969C938E93A0
:1020900014978A859B8517969C938E9316970E941A
:1020A00080038DB79EB708960FB6F8949EBF0FBEFB
:1020B0008DBF8B2D90E0EC01CC0FDD1F9C01E5E086
:1020C000220F331FEA95E1F7C20FD31FC052DC4F36
:1020D000298561E472E0AC014F5F5F4F20FF41C092
:1020E0000A851B85ADB7BEB71A970FB6F894BEBF69
:1020F0000FBEADBF2DB73EB72F5F3F4F12967C93FB
:102100006E9311978EEF91E0F90193838283FA0128
:1021100075E0EE0FFF1F7A95E1F7440F551FE40FAE
:10212000F51FE052FC4F8081992787FD9095D901DA
:1021300015969C938E931497C8016AE070E00E94F4
:102140000630F90177836683C8016AE070E00E9477
:102150000630918780870E9480038DB79EB70A96CC
:1021600032C0ADB7BEB718970FB6F894BEBF0FBE5A
:10217000ADBF1196EDB7FEB77283618387E092E041
:1021800013969C938E931297FA0125E0EE0FFF1F92
:102190002A95E1F7440F551FE40FF51FE052FC4F5D
:1021A0008081992787FD909515969C938E9314971F
:1021B0008A859B8517969C938E9316970E94800321
:1021C0008DB79EB708960FB6F8949EBF0FBE8DBF11
:1021D000D60111968D919C9112978150924011F4E5
:1021E000F60117868A2D992D9C01D901F60180E10F
:1021F00001900D928150E1F78A2D992DDF91CF91B9
:102200001F910F91FF90EF90DF90CF90BF90AF9014
:102210009F900895DF93CF930F92CDB7DEB7CE0195
:10222000019661E070E00E94550689818093360234
:10223000809137029091380268EB71E00E949A26F3
:1022400080913702909138026091360240E150E06F
:102250000E949127809137029091380266EB71E0DD
:102260000E94DD260F90CF91DF9108950F931F9369
:10227000CF93DF9380913702909138026EED70E03A
:102280000E949A26C0E0D0E00091370210913802F7
:102290008AEB95E0BE010E94291E682FC80140E12B
:1022A00050E00E94912781E0CF3FD80741F0809114
:1022B0003702909138026DE072E00E94F627219675
:1022C00082E0C030D80701F7809137029091380240
:1022D0006BED70E00E94DD26DF91CF911F910F9191
:1022E0000895EF92FF920F931F937C018091370224
:1022F000909138026BE471E00E949A26B7016C5FFE
:102300007F4F80913702909138020E940C28809173
:102310003702909138026CE371E00E949A26009196
:10232000370210913802C7010E94CB1A682FC801EA
:1023300040E150E00E94912780913702909138024D
:102340006EE271E00E949A260091370210913802E5
:10235000C7010E94341B682FC80140E150E00E9471
:102360009127809137029091380261E271E00E94DA
:102370009A260091370210913802C7016DE270E091
:102380000E94111B682FC80140E150E00E94912774
:10239000809137029091380265E171E00E949A269F
:1023A0000091370210913802C7010E94EE1A682F7F
:1023B000C80140E150E00E9491278091370290913E
:1023C000380261E071E00E949A2600913702109174
:1023D0003802C7010E94511BBC01C8014AE050E00D
:1023E0000E94E32780913702909138026EEF70E0EF
:1023F0000E94DD261F910F91FF90EF9008950F939B
:102400001F93DF93CF93CDB7DEB72F970FB6F89416
:10241000DEBF0FBECDBF809137029091380266E6D5
:1024200071E00E949A2680913702909138022091A3
:102430006802309169022115310511F420EE36E071
:10244000BE016F5F7F4F621B730B4AE050E00E943A
:10245000E327809137029091380263E671E00E9491
:10246000DD268E010D5F1F4FC80160E975E00E94F7
:102470009108C8010E947111CE0107960E94AD2CEF
:102480002F960FB6F894DEBF0FBECDBFCF91DF9170
:102490001F910F910895DF93CF9300D00F92CDB786
:1024A000DEB7CE01019663E070E00E945506898197
:1024B000809335029A8180E02B81820F911D909349
:1024C0001E0580931D05809137029091380264E8C3
:1024D00072E00E949A2680913702909138026091B2
:1024E00035024AE050E00E94912780913702909196
:1024F000380267E772E00E949A2660911D0570918C
:102500001E05809137029091380240E150E00E9410
:102510008027809137029091380265E772E00E942F
:10252000DD260F900F900F90CF91DF9108950F93BC
:102530001F93CF93DF93EC0180913502823059F4E1
:1025400029813A8180911D0590911E052817390730
:1025500009F0C5C018C0833051F429813A818091B7
:102560001D0590911E052817390768F4B8C08430FE
:1025700051F429813A8180911D0590911E058217A1
:10258000930708F4ACC08D859E85019721E030E06B
:1025900002C0220F331F8A95E2F730E080913602A5
:1025A00090E028233923232B09F499C08091370226
:1025B0009091380266E973E00E949A266B857C85CB
:1025C000809137029091380240E150E00E948027CC
:1025D000809137029091380268E873E00E949A2651
:1025E0002D853E858DE090E0289FB001299F700DDC
:1025F000389F700D112469577A4F8091370290915E
:1026000038020E940C2880913702909138026BE7C3
:1026100073E00E949A268091370290913802688177
:1026200040E150E00E94912780913702909138025A
:1026300062E773E00E949A2669817A81809137026D
:102640009091380240E150E00E948027809137024B
:102650009091380262E673E00E949A260091370258
:10266000109138020E947221AB01BC01C8012AE01E
:1026700030E00E947127809137029091380263E523
:1026800073E00E949A268E01C0E0D0E0809137026C
:1026900090913802F801638140E150E00E94912757
:1026A000C730D10541F080913702909138026FE434
:1026B00073E00E949A2621960F5F1F4FC830D10504
:1026C00029F780913702909138026AE473E00E9402
:1026D0009A2680913702909138020E94BD26DF91A0
:1026E000CF911F910F910895CF92DF92EF92FF92B9
:1026F0000F931F93DF93CF93CDB7DEB760970FB6DD
:10270000F894DEBF0FBECDBFD82EC92EF62EE72E11
:10271000809135028823A1F0DE011196862F972F34
:102720009C01F90180E101900D928150E1F78E0149
:102730000F5F1F4FC8010E949712C8010E94281EF8
:102740002D2D3C2DC901DC012F2D3E2DC901FC0191
:1027500080E101900D928150E1F78D2D9C2D6096C6
:102760000FB6F894DEBF0FBECDBFCF91DF911F91A2
:102770000F91FF90EF90DF90CF900895EF92FF922E
:102780000F931F93DF93CF93CDB7DEB7C059D040DF
:102790000FB6F894DEBF0FBECDBF7C01DE011196EF
:1027A000FC0180E101900D928150E1F78E010F5EF6
:1027B0001F4FC801BE016F5F7F4F0E947413D70186
:1027C000F80180E101900D928150E1F7CE01419630
:1027D0000E94281ECE0101960E94281EDE019196BD
:1027E000F70180E101900D928150E1F78E010F5CBD
:1027F0001F4FC801BE016F5D7F4F0E949A06D7012F
:10280000F80180E101900D928150E1F7CE01C1966F
:102810000E94281ECE0181960E94281EDE01AF5B19
:10282000BF4FF70180E101900D928150E1F78E01D9
:102830000F5A1F4FC801BE016F5B7F4F0E94740E7D
:10284000D701F80180E101900D928150E1F7CE01AE
:102850008F5A9F4F0E94281ECE018F5B9F4F0E9470
:10286000281EDE01AF59BF4FF70180E101900D92A4
:102870008150E1F78E010F581F4FC801BE016F59FB
:102880007F4F0E943606D701F80180E101900D923A
:102890008150E1F7CE018F589F4F0E94281ECE0134
:1028A0008F599F4F0E94281EF7018785882399F032
:1028B000DE01AF57BF4F80E101900D928150E1F7EB
:1028C0008E010F571F4F8DE595E0B8010E943B0A1E
:1028D000C8010E94281EC057DF4F0FB6F894DEBF14
:1028E0000FBECDBFCF91DF911F910F91FF90EF9061
:1028F0000895EF92FF920F931F93DF93CF93CDB77D
:10290000DEB7E0970FB6F894DEBF0FBECDBF7C01F7
:102910000E94341B80935C0580FF2EC08E010F5EE9
:102920001F4FC8010E941D1E80915C058C8F1D8E5B
:10293000F701838594859F8F8E8FC701B801AE0103
:102940004C5E5F4F9E012E5E3F4F0E94D01BDE010A
:102950001196F80180E101900D928150E1F78E010E
:102960000F5F1F4FC8010E94BE13C8010E94281E9E
:10297000CE0141960E94281E80915C0581FF2EC0E9
:102980008E010F5E1F4FC8010E941D1E80915C05C5
:102990008C8F1D8EF701838594859F8F8E8FC70145
:1029A000B801AE014C5E5F4F9E012E5E3F4F0E940C
:1029B000661BDE019196F80180E101900D92815035
:1029C000E1F78E010F5D1F4FC8010E94BE13C801C1
:1029D0000E94281ECE0141960E94281EE0960FB646
:1029E000F894DEBF0FBECDBFCF91DF911F910F9145
:1029F000FF90EF900895FF920F931F938C01F42E98
:102A000080E196E060E072EC0E94362386EA96E070
:102A100040E051EE60E070E00E94D624F092350272
:102A20001093200500931F051F910F91FF900895AB
:102A30001F93809130020E943E222AE030E06AE03B
:102A400070E00E941A3070E080913402482F50E00C
:102A5000241B350B261737073CF4CA010A96681762
:102A6000790714F410E201C010E087E190E0841BC4
:102A7000950B8617970734F4CA01479668177907AC
:102A80000CF4105F86E290E0841B950B8617970785
:102A900034F4CA018696681779070CF4105887E356
:102AA00090E0841B950B8617970734F4CA01C796EC
:102AB000681779070CF4105C88E490E0841B950B90
:102AC0008617970734F4485B5F4F641775070CF45B
:102AD000185F809132020E943E222AE030E06AE0D4
:102AE00070E00E941A3070E080913402482F50E06C
:102AF000241B350B2617370734F4CA010A966817CA
:102B000079070CF41C5F87E190E0841B950B861716
:102B1000970734F4CA014796681779070CF41E5FCB
:102B200087E290E0841B950B8617970734F4495D84
:102B30005F4F641775070CF41F5F8091B905181774
:102B400061F00E94722160931805709319058093BB
:102B50001A0590931B051093B9050E9472212091CC
:102B600018053091190540911A0550911B05621BFB
:102B7000730B840B950B663571058105910540F04B
:102B80009091B90580911C05891711F090931C054F
:102B900080911C051F910895BC0180E090E048E3FE
:102BA00051E029E236E00E9464030895DF93CF9359
:102BB000CDB7DEB7A1970FB6F894DEBF0FBECDBF7D
:102BC000CE01019662E270E00E9455068297D9F527
:102BD0008AA1813AC1F58981E82FF0E075E0EE0F16
:102BE000FF1F7A95E1F7E052FC4FDE01129680E27A
:102BF0000D9001928150E1F7809137029091380257
:102C000060E472E00E949A26809137029091380227
:102C100069814AE050E00E949127809137029091AB
:102C200038026DE372E00E94DD2689818F3021F544
:102C300080EE93E00E94CC1580913702909138028B
:102C400062E172E017C080913702909138026DED19
:102C500071E00E949A268091370290913802698132
:102C60004AE050E00E94912780913702909138020B
:102C70006AED71E00E94DD26A1960FB6F894DEBFE2
:102C80000FBECDBFCF91DF910895E0EEF3E088E372
:102C900091E0DF019C011D9221503040E1F7CF010E
:102CA00060E070E048E351E021E236E00E94480332
:102CB0008091E10381508E3F10F00E9439170895F2
:102CC00088E061E00E94762288E060E00E940323B1
:102CD00085E161E00E94762285E161E00E940323A4
:102CE00062E370E080E090E00E94D62185E160E040
:102CF0000E94032386E061E00E9476220E9445162E
:102D000086E061E00E94032362E370E080E090E0EF
:102D10000E94D62186E060E00E94032362E370E017
:102D200080E090E00E94D62186E061E00E940323CB
:102D300062E370E080E090E00E94D62186E060E0EF
:102D40000E94032362E370E080E090E00E94D621BD
:102D500086E061E00E94032362E370E080E090E09F
:102D60000E94D62186E060E00E94032382E395E082
:102D70000E94AE1D82E395E06DE770E00E94EA1CC0
:102D800082E395E061E00E94BE1C82E395E061E091
:102D900070E00E947A1C80E067E478E040E050E058
:102DA0000E9435208FE395E00E94AE1D8FE395E0F1
:102DB00064EF71E00E94EA1C8FE395E061E00E94FD
:102DC000BE1C8FE395E061E070E00E947A1C81E018
:102DD0006DE378E040E050E00E9435208CE495E01F
:102DE0000E94AE1D8CE495E06DE770E00E94EA1C45
:102DF0008CE495E061E00E94BE1C8CE495E061E00B
:102E000070E00E947A1C86E063E378E040E050E0E6
:102E10000E94352086E061E00E94032364E670E0B2
:102E200080E090E00E94D62186E060E00E940323CB
:102E300064E670E080E090E00E94D6218DE595E0A8
:102E400090932D0580932C052091E0039093270506
:102E50008093260510922105213011F4209321053D
:102E60008DE595E069E675E040E050E00E94FB14D6
:102E700008950F931F93DF93CF93CDB7DEB7C85359
:102E8000D1400FB6F894DEBF0FBECDBF0E94770DC4
:102E9000DE011196E7E7F2E088E391E001900D9200
:102EA0000197E1F7CE0101960E94CC150E944516CC
:102EB00080E196E06DEA73E00E94DD2600E010E01C
:102EC00087E061E00E94032364EF71E080E090E01E
:102ED0000E94D62187E060E00E94032364EF71E046
:102EE00080E090E00E94D6210F5F1F4F0630110551
:102EF00039F7C85CDE4F0FB6F894DEBF0FBECDBF0A
:102F0000CF91DF911F910F910895DF93CF930F928F
:102F1000CDB7DEB7CE01019661E070E00E945506A4
:102F20008981833091F0843028F4813041F08230FF
:102F300001F508C0843061F08530D9F40CC00E94DE
:102F4000FF1117C00E94361114C00E94D61511C07F
:102F50000E9439170EC086EA96E069EF72E00E947F
:102F6000DD2686EA96E061EA72E00E94DD260E9494
:102F70007C060F90CF91DF91089583309105A9F0E1
:102F80008430910534F48130910549F00297A9F419
:102F900009C08430910561F0089779F40CC00E9453
:102FA00085170BC00E94760C08C00E944B1205C00A
:102FB0000E940A1102C00E9471080E947C060895B6
:102FC000CF93DF93C0E1D6E0CE010E9437231816DD
:102FD00019064CF4D0933802C0933702CE010E94F8
:102FE0005E230E94BD17C6EAD6E0CE010E945D2591
:102FF000181619064CF4D0933802C0933702CE014C
:103000000E948E250E94BD17DF91CF9108952F92C7
:103010003F924F925F926F927F928F929F92AF9268
:10302000BF92CF92DF92FF920F931F93DF93CF93C4
:10303000CDB7DEB7C857D0400FB6F894DEBF0FBE8D
:10304000CDBF0E941815982F8091B705891799F068
:103050009093B705923469F0913819F0913459F48E
:1030600003C00E944F0D02C00E94620D0E94BD0D60
:1030700002C00E94A20D0E94220B0E94330C0E94EB
:10308000E01780915905882389F08E01085F1F4F52
:10309000C80162E375E00E949108C8010E9479149A
:1030A000CE010C960E94AD2C1092590580915A05C4
:1030B000882389F08E010B5E1F4FC8016FE375E016
:1030C0000E949108C8010E947914CE0149960E947D
:1030D000AD2C10925A0580915B05882389F08E01F2
:1030E0000E5D1F4FC8016CE475E00E949108C80195
:1030F0000E947914CE0186960E94AD2C10925A053A
:103100008091B805882311F1809163059091640541
:10311000892BE1F080913702909138026EEC70E0DB
:103120000E949A2660916305709164058091370230
:10313000909138024AE050E00E94E32780913702E4
:10314000909138026CEC70E00E94DD26FF24F3942D
:1031500009E4C02ED12CCC0EDD1E19E5412E512CD8
:103160004C0E5D1EBCE36B2E712C6C0E7D1EA4E01C
:103170002A2E312C260C371CF9E68F2E912C8C0E22
:103180009D1E5E010894A11CB11CA7C0209165057D
:1031900030916605C901E4E0880F991FEA95E1F7CF
:1031A000E0915F05F0916005D601E80FF91F80E11D
:1031B00001900D928150E1F7C90101969093660547
:1031C00080936505FA013197F0936405E0936305F8
:1031D00020916105309162058217930721F41092C6
:1031E000660510926505309789F0C90164E070E0CA
:1031F0000E941A306E177F074CF0C90162E070E040
:103200000E941A308DE595E00E94D209F60185856D
:1032100096852DE030E0829FB001839F700D929FD4
:10322000700D1124645A7A4FCE018F960E94910836
:10323000D201F60180E101900D928150E1F7C301C6
:10324000BE01615D7F4F0E949108C201B3010E94DF
:10325000D00CF82EC1010E94AD2CC2010E94281E84
:10326000FF20A1F5D401F60180E101900D9281507B
:10327000E1F78DE595E0B4010E943B0AC4010E948C
:10328000281E8091B805882309F10091370210911A
:103290003802C5016FE072E00E94712CF60185854D
:1032A00096852DE030E0829FB001839F700D929F44
:1032B000700D1124605A7A4FC5010E94202CBC0168
:1032C000C8010E943F28C5010E94B32CCE01C396BD
:1032D0000E94AD2CC6010E94281E409163055091AA
:1032E00064054115510519F0FF2009F04FCFC8586A
:1032F000DF4F0FB6F894DEBF0FBECDBFCF91DF9189
:103300001F910F91FF90DF90CF90BF90AF909F9053
:103310008F907F906F905F904F903F902F90089587
:10332000882319F48CB5806202C08CB58F7D8CBD6A
:1033300008959CB5937F982B9CBD08952CB5382F8C
:1033400033702C7F322B3CBD2DB590E09595879541
:103350009595879581702E7F822B8DBD089581E193
:1033600061E00E94032381E161E00E9476228CB536
:1033700080618CBD8CB580648CBD8FE061E00E9463
:10338000762280E161E00E9476220895DF92EF923A
:10339000FF920F931F93CF93DF938C01D62EEA01F8
:1033A000F22EE32EFC01808160E00E94032384E47E
:1033B0008EBD0DB407FEFDCF8EB5CE0123E09695F0
:1033C00087952A95E1F78EBD0DB407FEFDCF8EB52A
:1033D0009E012295220F207E2EBD0DB407FEFDCF4B
:1033E0008EB51EBC0DB407FEFDCF8EB51EBC0DB450
:1033F00007FEFDCF8EB5DEBC0DB407FEFDCF8EB54A
:103400008F2D9E2D9C01F90190E008C080818EBD1A
:103410000DB407FEFDCF8EB59F5F31969D15B0F3BD
:10342000F801808161E00E940323DF91CF911F9119
:103430000F91FF90EF90DF900895DF92EF92FF924F
:103440000F931F93CF93DF938C01D62EEA01F22EB8
:10345000E32EFC01808160E00E94032382E48EBDA4
:103460000DB407FEFDCF8EB5CE0133E0969587955E
:103470003A95E1F78EBD0DB407FEFDCF8EB59E01E6
:103480002295220F207E2EBD0DB407FEFDCF8EB5F6
:103490001EBC0DB407FEFDCF8EB51EBC0DB407FEDD
:1034A000FDCF8EB5DEBC0DB407FEFDCF8EB58F2DE2
:1034B0009E2D9C01F90190E008C080818EBD0DB465
:1034C00007FEFDCF8EB59F5F31969D15B0F3F801D5
:1034D000808161E00E940323DF91CF911F910F91C2
:1034E000FF90EF90DF900895DF92EF92FF920F939D
:1034F0001F93CF93DF938C01D62EEA01F22EE32E99
:10350000FC01808160E00E94032380E48EBD0DB445
:1035100007FEFDCF8EB5CE0143E0969587954A957F
:10352000E1F78EBD0DB407FEFDCF8EB59E0122954D
:10353000220F207E2EBD0DB407FEFDCF8EB51EBC22
:103540000DB407FEFDCF8EB51EBC0DB407FEFDCF3A
:103550008EB5DEBC0DB407FEFDCF8EB58F2D9E2D32
:103560009C01F90190E008C080818EBD0DB407FE7A
:10357000FDCF8EB59F5F31969D15B0F3F801808128
:1035800061E00E940323DF91CF911F910F91FF9083
:10359000EF90DF9008951F93CF93DF93EC01888124
:1035A00060E00E94032383E08EBD0DB407FEFDCFD3
:1035B0008EB58FE08EBD0DB407FEFDCF8EB58FEFBB
:1035C0008EBD0DB407FEFDCF1EB5888161E00E945F
:1035D0000323812FDF91CF911F9108951F93CF93E4
:1035E000DF93EC01888160E00E94032383E08EBDBD
:1035F0000DB407FEFDCF8EB58BE28EBD0DB407FE78
:10360000FDCF8EB58FEF8EBD0DB407FEFDCF1EB57D
:10361000888161E00E940323812FDF91CF911F9168
:1036200008951F93CF93DF93EC01162F888160E0FC
:103630000E94032383E08EBD0DB407FEFDCF8EB53F
:103640001EBD0DB407FEFDCF8EB58FEF8EBD0DB440
:1036500007FEFDCF1EB5888161E00E940323812F04
:10366000DF91CF911F9108951F93CF93DF93EC01CA
:10367000888160E00E94032380EA8EBD0DB407FEBE
:10368000FDCF8EB58FEF8EBD0DB407FEFDCF1EB5FD
:10369000888161E00E940323812FDF91CF911F91E8
:1036A00008950E94341B82FD03C020E030E00CC06E
:1036B00084FD03C021E030E007C086FD03C022E0A6
:1036C00030E002C02FEF3FEFC90108959F92AF9203
:1036D000BF92CF92DF92EF92FF920F931F93CF93FF
:1036E000DF93EC017B01B42EA52E6901888160E097
:1036F0000E94032384E98EBD0DB407FEFDCF8EB575
:103700008FEF8EBD0DB407FEFDCF9EB48FEF8EBD43
:103710000DB407FEFDCF0EB58FEF8EBD0DB407FEC5
:10372000FDCF8EB58FEF8EBD0DB407FEFDCF8EB5EC
:103730008FEF8EBD0DB407FEFDCF1EB51F708B2D14
:103740009A2D9C01F90190E02FEF07C02EBD0DB41A
:1037500007FEFDCF8EB581939F5F9117B8F38881E7
:1037600061E00E940323F70110830295069507701C
:10377000892D90E053E0880F991F5A95E1F7800F4B
:10378000911DF60191838083DF91CF911F910F915D
:10379000FF90EF90DF90CF90BF90AF909F900895F3
:1037A0009F92AF92BF92CF92DF92EF92FF920F93D0
:1037B0001F93CF93DF93EC017B01042FB52E69019A
:1037C000888160E00E94032380E98EBD0DB407FE6E
:1037D000FDCF8EB58FEF8EBD0DB407FEFDCF9EB42D
:1037E0008FEF8EBD0DB407FEFDCFAEB48FEF8EBD53
:1037F0000DB407FEFDCF8EB58FEF8EBD0DB407FE65
:10380000FDCF8EB58FEF8EBD0DB407FEFDCF1EB57B
:103810001F70802F9B2D9C01F90190E02FEF07C0B6
:103820002EBD0DB407FEFDCF8EB581939F5F91171E
:10383000B8F3888161E00E940323F70110832A2DE9
:1038400030E075E0369527957A95E1F7892D90E07F
:1038500063E0880F991F6A95E1F7280F391FF60179
:1038600031832083DF91CF911F910F91FF90EF90D3
:10387000DF90CF90BF90AF909F900895CF93DF934C
:10388000EC01888160E00E94032383E88EBD0DB4C3
:1038900007FEFDCF8EB5888161E00E940323DF9192
:1038A000CF910895CF93DF93EC01888160E00E946F
:1038B000032382E88EBD0DB407FEFDCF8EB588814F
:1038C00061E00E940323DF91CF910895CF93DF93AE
:1038D000EC01888160E00E94032381E88EBD0DB475
:1038E00007FEFDCF8EB5888161E00E940323DF9142
:1038F000CF9108951F93CF93DF93EC016230710550
:10390000A9F0633071053CF46115710559F061301F
:10391000710589F409C06330710551F06430710597
:1039200051F408C010E807C010E005C010E203C061
:1039300010E601C010E4888160E00E94032385E066
:103940008EBD0DB407FEFDCF8EB58FE08EBD0DB4DC
:1039500007FEFDCF8EB580EE8EBD0DB407FEFDCF08
:103960008EB51EBD0DB407FEFDCF8EB5888161E01A
:103970000E940323DF91CF911F9108951F93CF934E
:10398000DF93EC01662311F410E001C013E088819D
:1039900060E00E94032385E08EBD0DB407FEFDCFDD
:1039A0008EB58BE28EBD0DB407FEFDCF8EB583E0E4
:1039B0008EBD0DB407FEFDCF8EB51EBD0DB407FE46
:1039C000FDCF8EB5888161E00E940323DF91CF9106
:1039D0001F910895FF920F931F93CF93DF93EC01F4
:1039E0006436710541F16536710554F46431710531
:1039F000D9F062337105E9F06A30710541F512C002
:103A00006A3F7105E1F06B3F710524F46D37710574
:103A1000F1F413C081E0643F780799F0685E734069
:103A2000B1F411C011E301C018E108EBF5E0FF2E7D
:103A30000EC019E0FACF14E0F8CF13E0F6CF11E092
:103A4000F4CF10E0F2CF10E800E9E2E0FE2E88812A
:103A500060E00E9403236AE070E080E090E00E9452
:103A6000D62182E08EBD0DB407FEFDCF8EB58AE271
:103A70008EBD0DB407FEFDCF8EB51EBD0DB407FE85
:103A8000FDCF8EB56AE070E080E090E00E94D62124
:103A9000888161E00E9403236AE070E080E090E0AA
:103AA0000E94D621888160E00E9403236AE070E0D2
:103AB00080E090E00E94D62182E08EBD0DB407FE2A
:103AC000FDCF8EB589E28EBD0DB407FEFDCF8EB55C
:103AD0000EBD0DB407FEFDCF8EB56AE070E080E04C
:103AE00090E00E94D621888161E00E9403236AE071
:103AF00070E080E090E00E94D621888160E00E9422
:103B000003236AE070E080E090E00E94D62182E02A
:103B10008EBD0DB407FEFDCF8EB588E28EBD0DB40F
:103B200007FEFDCF8EB5FEBC0DB407FEFDCF8EB5F2
:103B30006AE070E080E090E00E94D621888161E038
:103B40000E9403236AE070E080E090E00E94D621AA
:103B5000DF91CF911F910F91FF9008950F931F93C5
:103B60008C018FE061E00E9476228EE060E00E948E
:103B7000762280E161E00E947622F801808161E096
:103B80000E947622F801828161E00E9476220E94E2
:103B9000AF1980E00E94991980E00E949E1981E08F
:103BA0000E949019F801828160E00E94032362E381
:103BB00070E080E090E00E94D621F801828161E00F
:103BC0000E94032364E670E080E090E00E94D6212A
:103BD0001F910F9108956F927F928F929F92AF9253
:103BE000BF92CF92DF92EF92FF920F931F937C01CF
:103BF0005B014A013901A4E0CA2ED12CC80ED91E9E
:103C0000C60167E272E00E94572CF701B182A082E0
:103C10009382828274866386C601B8010E948B2CCF
:103C20001F910F91FF90EF90DF90CF90BF90AF90DA
:103C30009F908F907F906F900895FC011786128659
:103C400011861086178216821582148213820895B7
:103C50000895F999FECF72BD61BDF89A80B50895B7
:103C6000F999FECF1FBA72BD61BD40BD0FB6F89481
:103C7000FA9AF99A0FBE08950F931F93CF93DF938B
:103C8000BC018230910510F462E070E0E091DE0644
:103C9000F091DF06A0E0B0E040E050E024C0808179
:103CA000918186179707D0F08617970771F4828164
:103CB0009381109729F013969C938E9312972CC0A2
:103CC0009093DF068093DE0627C04115510519F059
:103CD0008417950718F4EF018D01AC01DF01828193
:103CE00093819C01F9013097D1F641155105F9F006
:103CF000CA01861B970B8430910580F48A819B81D1
:103D00000115110521F0F8019383828304C090937B
:103D1000DF068093DE06FE0132962FC0FE01E80F1B
:103D2000F91F6193719302979983888326C08DB799
:103D30009EB78857904020916802309169022817F9
:103D40003907C8F4AC01421B530B4617570798F0CC
:103D5000CB0102964817590770F0820F931F90937A
:103D600069028093680290936B0280936A02F90162
:103D70006193719302C0E0E0F0E0CF01DF91CF9159
:103D80001F910F910895CF93DF939C01009709F441
:103D90008FC0EC0122971B821A826091DE0670911F
:103DA000DF066115710581F488819981820F931F67
:103DB00020916802309169022817390739F5D093AC
:103DC0006902C093680274C0DB0140E050E0AC17A8
:103DD000BD0708F1BB83AA83FE0121913191E20F57
:103DE000F31FAE17BF0779F48D919C911197280F9F
:103DF000391F2E5F3F4F3983288312968D919C91F6
:103E000013979B838A834115510571F4D093DF0684
:103E1000C093DE064DC012968D919C911397AD0113
:103E2000009711F0DC01D3CFDA011396DC93CE9327
:103E30001297FA0121913191E20FF31FCE17DF079C
:103E400069F488819981280F391F2E5F3F4FFA014D
:103E5000318320838A819B8193838283E0E0F0E039
:103E6000DB0112968D919C911397009719F0BC017C
:103E7000FD01F6CFAB014E5F5F4FDB018D919C9151
:103E8000840F951F20916802309169022817390725
:103E900079F4309729F41092DF061092DE0602C002
:103EA000138212824250504050936902409368023C
:103EB000DF91CF9108956F927F928F929F92AF92F0
:103EC000BF92CF92DF92EF92FF920F931F93CF9307
:103ED000DF938C01009729F4CB010E943C1E8C01DA
:103EE000B4C08EEFE82E8FEFF82EE00EF11E5801D1
:103EF000A60EB71EAE14BF0408F4A5C0D7014D919D
:103F00005C91119746175707B8F04530510508F4F2
:103F10009CC0CA0104978617970708F496C04250C0
:103F20005040461B570BF501419351936D937C9381
:103F3000CF010E94C31E89C04B01841A950A380123
:103F4000640E751EA091DE06B091DF06CC24DD2440
:103F5000E0E0F0E047C0A615B705A9F5CD91DC91EA
:103F60001197CE0102968815990568F1CE0188193E
:103F70009909029612962C91129713963C910597E7
:103F800058F0F50122833383C819D909D183C0833E
:103F9000D7016D937C9309C04E5F5F4F4C0F5D1F3F
:103FA000F70151834083C901FC01C114D10431F0F0
:103FB000D6011396FC93EE93129747C0F093DF0659
:103FC000E093DE0642C08D919C911197E817F907A6
:103FD00008F4FC016D0112968C91129713969C9136
:103FE0009C01D901109709F0B6CF80916802909199
:103FF000690286159705B1F4E617F70798F48DB7AF
:104000009EB788579040A816B906E8F4B0926902A6
:10401000A0926802B0926B02A0926A02F7017183CB
:10402000608313C0CB010E943C1EEC01009759F045
:10403000D7014D915C91B8010E943803C8010E94DC
:10404000C31E8E0102C000E010E0C801DF91CF91D5
:104050001F910F91FF90EF90DF90CF90BF90AF90A6
:104060009F908F907F906F9008958430F0F5E82FA7
:10407000F0E0EE0FFF1FE554FA4F7183608381304B
:1040800079F0813028F08230B9F0833071F521C0A9
:10409000809169008C7F842B80936900E89A089551
:1040A00080916900440F551F440F551F837F842B57
:1040B00080936900E99A08958091690024E0440F93
:1040C000551F2A95E1F78F7C842B80936900EA9A2B
:1040D00008958091690096E0440F551F9A95E1F785
:1040E0008F73842B80936900EB9A08951F920F922F
:1040F0000FB60F9211242F933F934F935F936F93BB
:104100007F938F939F93AF93BF93EF93FF93809190
:10411000BB059091BC05892B29F0E091BB05F0917E
:10412000BC050995FF91EF91BF91AF919F918F9140
:104130007F916F915F914F913F912F910F900FBEA3
:104140000F901F9018951F920F920FB60F92112487
:104150002F933F934F935F936F937F938F939F938F
:10416000AF93BF93EF93FF938091BD059091BE05F0
:10417000892B29F0E091BD05F091BE050995FF91CD
:10418000EF91BF91AF919F918F917F916F915F91CF
:104190004F913F912F910F900FBE0F901F90189548
:1041A0001F920F920FB60F9211242F933F934F93AC
:1041B0005F936F937F938F939F93AF93BF93EF938F
:1041C000FF938091BF059091C005892B29F0E09164
:1041D000BF05F091C0050995FF91EF91BF91AF9197
:1041E0009F918F917F916F915F914F913F912F910F
:1041F0000F900FBE0F901F9018951F920F920FB641
:104200000F9211242F933F934F935F936F937F935C
:104210008F939F93AF93BF93EF93FF938091C105CB
:104220009091C205892B29F0E091C105F091C2055A
:104230000995FF91EF91BF91AF919F918F917F91E0
:104240006F915F914F913F912F910F900FBE0F9003
:104250001F9018951F920F920FB60F9211242F9353
:104260003F938F939F93AF93BF938091C705909196
:10427000C805A091C905B091CA053091CB0501963A
:10428000A11DB11D232F2D5F2D3720F02D57019635
:10429000A11DB11D2093CB058093C7059093C80540
:1042A000A093C905B093CA058091C3059091C40538
:1042B000A091C505B091C6050196A11DB11D8093C1
:1042C000C3059093C405A093C505B093C605BF91DF
:1042D000AF919F918F913F912F910F900FBE0F90B3
:1042E0001F9018958FB7F8942091C7053091C80595
:1042F0004091C9055091CA058FBFB901CA010895FF
:10430000789484B5826084BD84B5816084BD85B5B0
:10431000826085BD85B5816085BDEEE6F0E0808177
:1043200081608083E1E8F0E0108280818260808398
:10433000808181608083E0E8F0E08081816080831B
:10434000E1E9F0E080818260808380818160808308
:10435000E0E9F0E0808181608083E1ECF0E0808141
:10436000846080838081826080838081816080839B
:10437000E3ECF0E0808181608083E0ECF0E080811C
:1043800082608083E2ECF0E0808181608083EAE7F4
:10439000F0E080818460808380818260808380817E
:1043A000816080838081806880830895EF92FF928E
:1043B0000F931F93CF93DF937B018C013FB7F8944A
:1043C0008091C3059091C405A091C505B091C60523
:1043D00026B5A89B05C02F3F19F00196A11DB11D60
:1043E0003FBFBA2FA92F982F8827820F911DA11D9B
:1043F000B11D52E0880F991FAA1FBB1F5A95D1F714
:10440000EC0130C00E94B92C3FB7F8948091C305ED
:104410009091C405A091C505B091C60526B5A89B8D
:1044200005C02F3F19F00196A11DB11D3FBFBA2F46
:10443000A92F982F8827820F911DA11DB11D32E051
:10444000880F991FAA1FBB1F3A95D1F78C1B9D0B94
:10445000885E9340B8F20894E108F1080109110957
:10446000C851DC4FE114F1040105110559F6DF9143
:10447000CF911F910F91FF90EF900895823108F036
:104480008251E82FF0E0E35AFB4FE49120917B004A
:104490008E2F86958695869590E08170907035E098
:1044A000880F991F3A95E1F72F7D282B20937B00E9
:1044B000E77080916C028295880F880F807C8E2B2C
:1044C00080937C0080917A00806480937A00809150
:1044D0007A0086FDFCCF2091780040917900942FDE
:1044E00080E030E0282B392BC9010895CF93DF936A
:1044F000482F50E0CA018F5D9B4FFC0134914D5F06
:104500005B4FFA018491882369F190E0880F991F2D
:10451000FC01E752FC4FA591B491FC01E951FC4F1D
:10452000C591D491662351F42FB7F8948C91932FB1
:10453000909589238C93888189230BC0623061F424
:104540002FB7F8948C91932F909589238C93888121
:10455000832B88832FBF06C09FB7F8948C91832B41
:104560008C939FBFDF91CF910895883071F189308E
:1045700068F4823031F1833020F4813009F042C098
:104580001DC0833089F08430E9F512C08B3059F1B9
:104590008C3028F48930E9F08A30A1F51EC08C30C7
:1045A00031F18E3079F529C0809180008F7703C07A
:1045B000809180008F7D80938000089584B58F77EF
:1045C00002C084B58F7D84BD0895809190008F775F
:1045D00007C0809190008F7D03C080919000877FFD
:1045E0008093900008958091C0008F7703C08091E0
:1045F000C0008F7D8093C00008958091C200877FA6
:104600008093C2000895FF920F931F93F62E482FB8
:1046100050E0CA01815C9B4FFC012491CA018F5D6F
:104620009B4FFC0114914D5F5B4FFA0104910023F5
:10463000C9F0222319F0822F0E94B522E02FF0E06A
:10464000EE0FFF1FE951FC4FA591B4919FB7F8946D
:10465000FF2021F48C911095812302C08C91812B35
:104660008C939FBF1F910F91FF9008950895209103
:104670000C0630910D0680910E0690910F06281BB6
:10468000390B2F733070C901089520910C063091B9
:104690000D0680910E0690910F062817390719F420
:1046A0002FEF3FEF09C0E0910E06F0910F06E453A3
:1046B000FA4F8081282F30E0C901089520910C061F
:1046C00030910D0680910E0690910F06281739073C
:1046D00019F42FEF3FEF13C0E0910E06F0910F0693
:1046E000E453FA4F208180910E0690910F060196B7
:1046F0008F73907090930F0680930E0630E0C9017F
:104700000895109213061092120688EE93E0A0E02E
:10471000B0E08093140690931506A0931606B0930C
:10472000170683EB93E0909311068093100608958B
:104730000F931F93DF93CF930F92CDB7DEB78C010A
:10474000698380917402882369F083E0BE016F5F02
:104750007F4F41E050E00E9425291816190614F4F5
:104760009C0107C081E090E0F8019383828320E000
:1047700030E0C9010F90CF91DF911F910F91089503
:1047800083E00E94FC280895CF93DF9312C082E05B
:104790000E9487282FEF8F3F9207C9F0E0910C0607
:1047A000F0910D06E453FA4F8083D0930D06C09329
:1047B0000C06C0910C06D0910D062196CF73D070D7
:1047C00080910E0690910F06C817D90701F7DF9167
:1047D000CF910895FC0180818E5F808380E869E637
:1047E00074E042E450E00E94A0280895FC01818119
:1047F0009081913A59F4813209F04CC080E06DE625
:1048000072E047E050E00E94A02842C0913209F0D7
:1048100041C0803239F48DE692E067E070E00E949A
:10482000E42836C0823209F035C082818093740258
:1048300080916D0290916E02A0916F02B091700212
:10484000805B9440A040B04019F58091740280FDD7
:1048500012C087E797E790930108809300082BE048
:1048600088E190E00FB6F894A895809360000FBEA1
:10487000209360000DC088E10FB6F894809360002B
:10488000109260000FBEA8951092010810920008C7
:1048900081E0089580E0089508951F920F920FB669
:1048A0000F9211242F933F934F938F939F93EF93E6
:1048B000FF938091C80082FD1DC04091CE002091E1
:1048C0005E0630915F062F5F3F4F2F7330708091EF
:1048D0006006909161062817390771F0E0915E0635
:1048E000F0915F06E25EF94F408330935F062093BC
:1048F0005E0602C08091CE00FF91EF919F918F9153
:104900004F913F912F910F900FBE0F901F901895D0
:10491000E091B206F091B306E05CFF4F8191919176
:1049200020813181821B930B8F739070892B11F042
:104930000E944C2408951F920F920FB60F921124DB
:104940002F933F938F939F93EF93FF932091A20612
:104950003091A3068091A4069091A50628173907E7
:1049600031F48091C9008F7D8093C90014C0E0911B
:10497000A406F091A506EE59F94F20818091A40676
:104980009091A50601968F7390709093A5068093E1
:10499000A4062093CE00FF91EF919F918F913F91BC
:1049A0002F910F900FBE0F901F901895AF92BF924E
:1049B000DF92EF92FF920F931F93CF93DF93EC015F
:1049C0007A018B01DD24403081EE580780E06807D2
:1049D00080E0780711F0DD24D39491E0A92EB12C6A
:1049E000EC89FD89DD2069F0C50108A002C0880FAF
:1049F000991F0A94E2F7808360E079E08DE390E00C
:104A000005C0108260E874E88EE190E0A80197018B
:104A10000E942D30215030404040504056954795DF
:104A20003795279580E12030380720F0DD2011F000
:104A3000DD24D6CFE889F9893083EA89FB89208390
:104A400019A2EE89FF89408121E030E0C9010C8C78
:104A500002C0880F991F0A94E2F7482B4083EE8921
:104A6000FF894081C9010D8C02C0880F991F0A94EB
:104A7000E2F7482B4083EE89FF894081C9010E8C03
:104A800002C0880F991F0A94E2F7482B4083EE89F1
:104A9000FF8980810F8C02C0220F331F0A94E2F736
:104AA000209528232083DF91CF911F910F91FF90B4
:104AB000EF90DF90BF90AF900895DC011C96ED91D0
:104AC000FC911D97E05CFF4F219131918081918194
:104AD000281B390B2F733070C9010895DC011C9617
:104AE000ED91FC911D97E05CFF4F20813181E054F6
:104AF000F040DF01AE5BBF4F8D919C91119728175D
:104B0000390719F42FEF3FEF07C08D919C91E80F03
:104B1000F91F8081282F30E0C9010895DC011C961F
:104B2000ED91FC911D97E05CFF4F20813181E054B5
:104B3000F040DF01AE5BBF4F8D919C91119728171C
:104B4000390719F42FEF3FEF10C08D919C91119709
:104B5000E80FF91F20818D919C91119701968F7319
:104B6000907011969C938E9330E0C9010895DC01FA
:104B700091968C919197882339F05496ED91FC9100
:104B80005597808186FFF9CF91961C920895CF9317
:104B9000DF93EC01EE85FF85E05CFF4F20813181E2
:104BA000E054F0402F5F3F4F2F733070DF01AE5B5A
:104BB000BF4F8D919C91119728173907D1F3E05C75
:104BC000FF4F80819181E054F040E80FF91F60832E
:104BD000EE85FF85E05CFF4F31832083EE89FF89FE
:104BE000208181E090E00F8C02C0880F991F0A9409
:104BF000E2F7282B208381E089A3EC89FD8980815D
:104C00008064808381E090E0DF91CF9108951092DD
:104C1000A9061092A80688EE93E0A0E0B0E0809389
:104C2000AA069093AB06A093AC06B093AD0685ECB4
:104C300093E09093A7068093A6068EE196E090936A
:104C4000B3068093B20682E696E09093B506809311
:104C5000B4068DEC90E09093B7068093B6068CEC8A
:104C600090E09093B9068093B80688EC90E090931A
:104C7000BB068093BA0689EC90E09093BD068093C2
:104C8000BC068AEC90E09093BF068093BE068EEC43
:104C900090E09093C1068093C00684E08093C206A2
:104CA00083E08093C30687E08093C40685E0809309
:104CB000C50681E08093C6060895CF93DF930E94D6
:104CC000802180ED96E00E9407290E946016C8E8C6
:104CD000D4E20E9407182097E1F30E948824F9CFBC
:104CE000CF92DF92EF92FF920F931F93CF93DF93B8
:104CF0007C016B018A01C0E0D0E00FC0D6016D914C
:104D00006D01D701ED91FC910190F081E02DC7017B
:104D10000995C80FD91F015010400115110571F7F1
:104D2000CE01DF91CF911F910F91FF90EF90DF9017
:104D3000CF900895EF92FF920F931F93CF93DF933D
:104D40007C018B01C0E0D0E0F8010F5F1F4F649140
:104D5000662359F0D701ED91FC910190F081E02D8F
:104D6000C7010995C80FD91FEFCFCE01DF91CF91B1
:104D70001F910F91FF90EF900895EF92FF920F9384
:104D80001F938C01DC01ED91FC910190F081E02DED
:104D90006DE009957C01D801ED91FC910190F081C5
:104DA000E02DC8016AE009959C012E0D3F1DC90147
:104DB0001F910F91FF90EF900895EF92FF920F9344
:104DC0001F937C010E949A268C01C7010E94BD2678
:104DD0009C01200F311FC9011F910F91FF90EF908F
:104DE0000895CF93DF93EC016115710519F420E06C
:104DF00030E00FC0DB010D900020E9F71197A61BF2
:104E0000B70BE881F9810280F381E02DAD010995AE
:104E10009C01C901DF91CF9108954F925F927F92DB
:104E20008F929F92AF92BF92CF92DF92EF92FF92BA
:104E30000F931F93DF93CF93CDB7DEB7A1970FB634
:104E4000F894DEBF0FBECDBF2C01742ECB012230F3
:104E500008F42AE019A231E2C32ED12CCC0EDD1EBB
:104E6000822E9924AA24BB24672D752FA5019401B5
:104E70000E942D3079018A01C801B701A501940172
:104E80000E94E72F472D461B0894C108D1084A30DD
:104E900014F4405D01C0495CF6014083E114F10463
:104EA0000105110521F07E2C5F2DC801DDCFC20167
:104EB000B6010E94F126A1960FB6F894DEBF0FBE90
:104EC000CDBFCF91DF911F910F91FF90EF90DF90B9
:104ED000CF90BF90AF909F908F907F905F904F90BA
:104EE0000895DC012115310541F4ED91FC9101900B
:104EF000F081E02D642F099508950E940D270895F3
:104F0000EF92FF920F931F939A017B0100E010E054
:104F1000B801A7010E9471271F910F91FF90EF9098
:104F20000895EF92FF920F931F939A01E62EFF24AC
:104F300000E010E0B801A7010E9471271F910F91B6
:104F4000FF90EF900895CF92DF92EF92FF920F9330
:104F50001F93CF93DF93EC016A017B01211531058B
:104F600041F4E881F9810190F081E02D642F0995E9
:104F70001FC02A303105D1F477FF17C0E881F981CD
:104F80000190F081E02D6DE209958C0144275527B1
:104F9000BA014C195D096E097F09CE012AE00E9411
:104FA0000D279801280F391F04C02AE00E940D2701
:104FB0009C01C901DF91CF911F910F91FF90EF905C
:104FC000DF90CF900895EF92FF920F931F937B0194
:104FD0009A010027F7FC0095102FB801A7010E9445
:104FE000A3271F910F91FF90EF9008950E94F12643
:104FF0000895EF92FF920F931F937C010E94F12678
:105000008C01C7010E94BD26080F191FC8011F91FE
:105010000F91FF90EF900895AF92BF92CF92DF92E1
:10502000EF92FF920F931F93CF93DF935C016B017D
:10503000EE24FF24C0E0D0E010C0D501ED91FC913A
:1050400000811181C601BE010E949A2B682FC50103
:10505000F8010995E80EF91E2196F60184819581E3
:10506000C817D90750F3C701DF91CF911F910F9156
:10507000FF90EF90DF90CF90BF90AF900895EF92A8
:10508000FF920F931F937C010E940C288C01C70193
:105090000E94BD269C01200F311FC9011F910F9155
:1050A000FF90EF900895282F8091CA068823C1F0C1
:1050B00057FF1AC015C028989093C9068091F10037
:1050C0008193E217F307B9F74115510539F0809143
:1050D000F200882319F48BE68093E800AFBF02C08A
:1050E0004FEF5FEFCA010895AFB7F8942770209390
:1050F000E9008091F200282F30E0241735070CF4E6
:10510000A901FB019B01240F311D94E6DACFDF9347
:10511000CF930F92CDB7DEB7BE016F5F7F4F41E0F7
:1051200050E00E945328019719F02FEF3FEF03C082
:105130008981282F30E0C9010F90CF91DF91089528
:10514000FF920F931F93F82E142F052F4091CD0639
:105150005091CE06212F302FC901DC01FB016EEFEB
:1051600029C0F7FE02C0949101C090812091CB0626
:105170003091CC0624173507ACF48091E800857097
:10518000E1F38091E80082FF03C02FEF3FEF17C0EB
:105190009093F100C90101968F739070892B11F4DF
:1051A0006093E8002F5F3F4F3093CC062093CB06EF
:1051B000119731961097A9F6812F902F9C01C90164
:1051C0001F910F91FF9008959C018091E80082FF4C
:1051D000FCCFF901260F311D03C08091F1008193AE
:1051E000E217F307D1F7289884E68093C9068BEF7E
:1051F0008093E800CB0108958093E9008091F2004C
:10520000882319F08AE38093E800089508951092A6
:10521000CA0681E08093D70080EA8093D80082E1BB
:1052200089BD09B400FEFDCF61E070E080E090E050
:105230000E94D62180E98093D8008CE08093E20020
:105240001092E000559A209A08955F926F927F9293
:105250008F929F92AF92BF92CF92DF92EF92FF9286
:105260000F931F93CF93DF93E82E842E752E80919A
:10527000CA06882371F18B01242F352FC901EC0157
:105280007AEFF72E67E0962E9E2050E4552E8E2D55
:1052900090E040E2A42EB12CA822B9223AE3632E7A
:1052A00020E4C22ED12CC822D92258C09FB7F8942E
:1052B0009092E9008091E80085FD02C020E004C0E2
:1052C0008091F200252D281B9FBF222361F4FA94C0
:1052D00019F42FEF3FEF4DC061E070E080E090E007
:1052E0000E94D6213BC0822F90E0C817D9070CF44A
:1052F0002C2FC21BD1094FB7F8949092E900A1144A
:10530000B10421F406C01092F10021502223D9F7F4
:1053100019C0E7FC03C0F801922F10C0C801322F5A
:1053200006C0FC010196E491E093F1003150332373
:10533000C1F706C081918093F10091509923D1F774
:10534000020F111D8091E80085FF05C0209729F408
:10535000C114D10411F06092E8004FBF209709F00A
:10536000A5CF5D9884E68093C806282D372DC90106
:105370009C01C901DF91CF911F910F91FF90EF9098
:10538000DF90CF90BF90AF909F908F907F906F9065
:105390005F9008951F920F920FB60F9211242F93D2
:1053A0003F934F935F936F937F938F939F93AF93AD
:1053B000BF93EF93FF938091E1001092E100982F4B
:1053C00083FF0FC01092E90081E08093EB00109200
:1053D000EC0082E38093ED001092CA0688E080938F
:1053E000F00092FF34C083E08093E9008091F200E6
:1053F000882319F08AE38093E8008FB7F89492E04D
:105400009093E9009091F2008FBF992321F080E101
:1054100096E00E94C4238091C806882351F08091B1
:10542000C80681508093C8068091C806882309F475
:105430005D9A8091C906882351F08091C9068150F8
:105440008093C9068091C906882309F4289AFF91A0
:10545000EF91BF91AF919F918F917F916F915F91EC
:105460004F913F912F910F900FBE0F901F90189565
:105470000F931F93DF93CF930F92CDB7DEB71982AF
:105480008E010F5F1F4FC8010E94EA23C8010E94CE
:10549000F12D898190E00F90CF91DF911F910F91B5
:1054A00008951F920F920FB60F921124EF92FF9260
:1054B0001F932F933F934F935F936F937F938F939C
:1054C0009F93AF93BF93EF93FF93DF93CF93CDB7AA
:1054D000DEB76197DEBFCDBF1092E9008091E80092
:1054E00083FF0FC1FE0131969E01275F3F4F03C02E
:1054F0008091F1008193E217F307D1F7289884E6B1
:105500008093C90682EF8093E800998197FF05C0D8
:105510008091E80080FFFCCF03C08EEF8093E8000D
:10552000292F30E0C90180769070892B09F0C2C024
:105530008A81882329F41092F1001092F100D6C0DC
:10554000813009F4D3C0833009F4D0C0853049F4E8
:105550008091E80080FFFCCF8B8180688093E3001E
:10556000C5C0863009F07CC01C81EF80F884123001
:10557000C1F51092E9001092CC061092CB06109261
:10558000CE061092CD060E94382A99E0FE01399687
:10559000DF01292F1D922A95E9F799871A8791E053
:1055A0009E8790E8988B9AEF998B2091CB0630914B
:1055B000CC06275F3F4F3C872B878D871092E900F1
:1055C0001092CC061092CB06F092CE06E092CD0659
:1055D00080E0BF0149E050E00E94A0280E94382AE4
:1055E00085C01092E9001092CC061092CB06F09282
:1055F000CE06E092CD06123241F482E290E00E94A3
:10560000E92D892B09F476C071C0113079F488E056
:10561000E816F10419F481E08093CF068091CF065B
:10562000882309F06BC0E9EEF4E013C0133009F0F1
:1056300061C08B81882319F4EBEAF4E00AC0823060
:1056400019F4EFEAF4E005C0813009F053C0E1ED50
:10565000F4E0449180E8BF0150E00E94A02846C0D9
:10566000873009F447C0883021F481E08093F1004D
:105670003DC08930D9F523703070232BD9F5EEE089
:10568000F5E091E031E026E39093E9003093EB0000
:1056900084918093EC002093ED009F5F31969530CC
:1056A00099F78EE78093EA001092EA008B8180934D
:1056B000CA061CC08F8198851092E9001092CC0612
:1056C0001092CB069093CE068093CD068D818823D1
:1056D00029F4CE0101960E94F62306C0823051F4CF
:1056E000CE0101960E94BA2C882321F08EEF809380
:1056F000E80007C081E28093EB0003C0EBEFF4E029
:10570000A8CF6196DEBFCDBFCF91DF91FF91EF9122
:10571000BF91AF919F918F917F916F915F914F91C9
:105720003F912F911F91FF90EF900F900FBE0F9020
:105730001F901895FC01848195816817790748F4BA
:105740000190F081E02D309721F0E60FF71F808166
:10575000089580E008950F931F93CF93DF93EC019A
:105760008B016F5F7F4F888199810E945B1F00973B
:1057700011F480E005C0998388831B830A8381E04C
:10578000DF91CF911F910F910895CF93DF93EC019B
:1057900088819981892B29F08A819B8186179707B7
:1057A00060F4CE010E94AB2B882341F08C819D8157
:1057B000892B19F4E881F981108281E0DF91CF9182
:1057C0000895EF92FF920F931F93CF93DF93EC0115
:1057D0007B016C817D81E114F104C1F0411551051B
:1057E00099F08A01060F171FB8010E94C52B882364
:1057F00069F0888199812C813D81820F931FB701C7
:105800000E9441031D830C8381E001C080E0DF9191
:10581000CF911F910F91FF90EF900895CF93DF9359
:10582000EC0188819981009711F00E94C31E1982B2
:1058300018821D821C821B821A82DF91CF910895EB
:105840000F931F93182F092FFB01608171814481F1
:1058500055810E94E12B882321F4812F902F0E94F3
:105860000E2C812F902F1F910F910895EF92FF9290
:105870000F931F93CF93DF93EC017B018A01BA0151
:105880000E94C52B882321F4CE010E940E2C07C054
:105890001D830C8388819981B7010E944103CE0149
:1058A000DF91CF911F910F91FF90EF900895CF93CB
:1058B000DF93EC01198218821B821A821D821C82DE
:1058C0001E826115710551F0DB010D900020E9F792
:1058D0001197A61BB70BAD010E94362CDF91CF911B
:1058E0000895CF93DF93EC01198218821B821A82EC
:1058F0001D821C821E826115710551F0DB010D9025
:105900000020E9F71197A61BB70BAD010E94362CBA
:10591000DF91CF910895CF93DF93EC01FB018617C0
:10592000970761F0608171816115710529F04481EB
:1059300055810E94362C02C00E940E2CCE01DF91B0
:10594000CF910895FC011182108213821282158278
:10595000148216820E948B2C0895FC018081918113
:105960000E94C31E0895FC01808191810E94C31E84
:1059700008950895FC0191818081813A31F491303C
:1059800089F080E0933089F40DC0813269F49B3056
:1059900021F482818093750205C09A3029F48281B6
:1059A0008093760281E0089580E00895EF92FF925F
:1059B0000F931F938C01E62EDC01ED91FC91048086
:1059C000F581E02D0995F82ED801ED91FC91068026
:1059D000F781E02DC8016E2D09958F2D90E01F9164
:1059E0000F91FF90EF9008951092D1061092D50676
:1059F0001092D40685ED93E09093D3068093D2065F
:105A00000895EF92FF920F931F93DF93CF930F921E
:105A1000CDB7DEB789838B017A0184E0BE016F5F69
:105A20007F4F41E050E00E94252984E4B801A7019E
:105A30000E9425290F90CF91DF911F910F91FF9028
:105A4000EF90089582E048E050E00E94012D089513
:105A5000FC01168217821086118612861386148224
:105A60003496BF010E94222D0895DC01683810F0A1
:105A7000685829C0E62FF0E067FF13C0E058F040F7
:105A800081E090E002C0880F991FEA95E2F78095C7
:105A900014962C911497282314962C93149760E055
:105AA00012C0E057FA4F6491662319F420E030E009
:105AB0001DC067FF08C014968C9114978D7F1496B3
:105AC0008C9314976F77FD0190E0662321F0868117
:105AD000861709F416829F5F31969630B1F7CD0193
