:100000000C9467010C948F010C948F010C948F0158
:100010000C948F010C948F010C948F010C948F0120
:100020000C948F010C948F010C9451070C94D807F9
:100030000C948F010C948F010C948F010C948F0100
:100040000C948F010C948F010C948F010C948F01F0
:100050000C948F010C948F010C948F010C94260941
:100060000C948F010C941E030C9465030C948F0167
:100070000C948F010C948F010C948F010C948F01C0
:100080000C948F010C948F010C948F010C948F01B0
:100090000C948F010C948F010C948F010C948F01A0
:1000A0000C948F010C948F010C948F0100000000C0
:1000B000240027002A002D00300000000000250049
:1000C00028002B002E003100000000002300260035
:1000D00029002C002F000404040404030405020278
:1000E00002020403020202020606060606060404D1
:1000F00002020204040802011040804010204080E7
:10010000408008020401804020100201108010206D
:1001100040400000000200080E0000030401000B34
:1001200000000000000000000000000000000000CF
:10013000070605040100080A0B0C0D09080B000254
:10014000020201000904000001020200000524006F
:100150001001052401010104240206052406000102
:100160000705810310004009040100020A00000095
:100170000705020240000007058302400000040357
:10018000090441726475696E6F204C656F6E61720F
:10019000646F0041726475696E6F204C4C430012AD
:1001A00001000200000040412336800001010200EE
:1001B00001120100020200004041233680000101CB
:1001C00002000100C18081C105010902A1010901EC
:1001D000A1008501050919012903150025019503D1
:1001E0007501810295017505810305010930093109
:1001F00009381581257F750895038106C0C0050162
:100200000906A1018502050719E029E71500250166
:100210007501950881029501750881039506750899
:10022000150025650507190029658100C00904022C
:1002300000010300000009210101000122650007FF
:1002400005840340000100000000000000002A2B8C
:100250002800000000000000000000000000000076
:100260000000000000002C9EB4A0A1A2A434A6A708
:10027000A5AE362D3738271E1F2021222324252600
:10028000B333B62EB7B89F8485868788898A8B8CCE
:100290008D8E8F909192939495969798999A9B9C16
:1002A0009D2F3130A3AD350405060708090A0B0C54
:1002B0000D0E0F101112131415161718191A1B1CF6
:1002C0001DAFB1B0B5005102A2048D06660A11241B
:1002D0001FBECFEFDAE0DEBFCDBF11E0A0E0B1E09E
:1002E000E4E3F7E102C005900D92AA33B107D9F714
:1002F00012E0AAE3B1E001C01D92A93CB107E1F709
:1003000012E0CEECD2E004C02297FE010E94940BD2
:10031000C63CD107C9F70E94F8040C94980B0C94C2
:1003200000008AEB91E040E052EC61E070E00E9456
:10033000160288E092E040E051EE60E070E00E943A
:10034000950386E061E00E94D701089580E8EAE322
:10035000F1E0DF011D928A95E9F709C08AEB91E08F
:100360000E943302682F88E092E00E9466048AEBC4
:1003700091E00E9417021816190684F380E8EAE358
:10038000F1E0DF011D928A95E9F709C088E092E06B
:100390000E943804682F8AEB91E00E94680288E08E
:1003A00092E00E941C041816190684F30895CF9356
:1003B000DF93482F50E0CA018C509F4FFC013491CD
:1003C0004A525F4FFA018491882369F190E0880FC7
:1003D000991FFC01E455FF4FA591B491FC01E6542F
:1003E000FF4FC591D491662351F42FB7F8948C91A7
:1003F000932F909589238C93888189230BC0623039
:1004000061F42FB7F8948C91932F909589238C9356
:100410008881832B88832FBF06C09FB7F8948C9167
:10042000832B8C939FBFDF91CF9108950895FC019A
:100430002485858530E0205C3F4F281B31092F73D0
:100440003070C9010895FC0194858585981719F4C9
:100450002FEF3FEF06C08585E80FF11D8685282F19
:1004600030E0C9010895DC011C969C911C971D96F3
:100470008C911D97981719F42FEF3FEF10C01D9620
:100480008C911D97FD01E80FF11D96851D968C91AD
:100490001D978F5F8F731D968C93292F30E0C901B4
:1004A00008951092BD011092BC0188EE93E0A0E087
:1004B000B0E08093BE019093BF01A093C001B093C0
:1004C000C1018EE091E09093BB018093BA01089541
:1004D0000F931F93DF93CF930F92CDB7DEB78C01AD
:1004E000698380910701882369F083E0BE016F5F13
:1004F0007F4F41E050E00E94AC061816190614F434
:100500009C0107C081E090E0F8019383828320E0A2
:1005100030E0C9010F90CF91DF911F910F910895A5
:1005200083E00E94830608950F931F93CF93DF9378
:100530008C01FC010FC082E00E9469059C01FFEF65
:100540008F3F9F0799F0F8018485E80FF11D2687FA
:10055000F801C4878485C82FD0E02196CF73D0706E
:10056000F801858590E0C817D90729F7DF91CF9169
:100570001F910F910895FC0180818E5F808380E838
:100580006CE371E042E450E00E9482050895FC01B2
:1005900081819081913A59F4813209F04CC080E018
:1005A00060E071E047E050E00E94820542C0913275
:1005B00009F041C0803239F480E091E067E070E0FA
:1005C0000E946B0636C0823209F035C0828180936A
:1005D00007018091000190910101A0910201B09169
:1005E0000301805B9440A040B04019F58091070161
:1005F00080FD12C087E797E7909301088093000879
:100600002BE088E190E00FB6F894A8958093600005
:100610000FBE209360000DC088E10FB6F894809360
:100620006000109260000FBEA89510920108109211
:10063000000881E0089580E0089508951F920F92C8
:100640000FB60F9211242F933F934F938F939F9345
:10065000EF93FF938091C80082FD19C04091CE00B6
:1006600080912602282F30E02F5F3F4F2F7330708C
:100670008091270290E02817390759F0E09126026F
:10068000F0E0E85FFD4F42A32093260202C0809174
:10069000CE00FF91EF919F918F914F913F912F91BC
:1006A0000F900FBE0F901F901895809126022091F9
:1006B000270290E0805C9F4F821B91098F7390709E
:1006C000892B11F00E941D0308951F920F920FB6FF
:1006D0000F9211242F938F939F93EF93FF939091F9
:1006E000280280912902981731F48091C9008F7DEA
:1006F0008093C90010C0E0912902F0E0E659FD4F57
:1007000020818091290290E001968F7390708093F0
:1007100029022093CE00FF91EF919F918F912F910D
:100720000F900FBE0F901F901895AF92BF92DF925F
:10073000EF92FF920F931F93CF93DF93EC017A0117
:100740008B01DD24403081EE580780E0680780E0AF
:10075000780711F0DD24D39491E0A92EB12CE8891B
:10076000F989DD2069F0C5010C8C02C0880F991F42
:100770000A94E2F7808360E079E08DE390E005C0C1
:10078000108260E874E88EE190E0A80197010E9471
:10079000700B21503040404050405695479537955A
:1007A000279580E12030380720F0DD2011F0DD248E
:1007B000D6CFEC85FD853083EE85FF8520831D8EA9
:1007C000EA89FB89408121E030E0C901088C02C040
:1007D000880F991F0A94E2F7482B4083EA89FB8926
:1007E0004081C901098C02C0880F991F0A94E2F761
:1007F000482B4083EA89FB894081C9010A8C02C0E9
:10080000880F991F0A94E2F7482B4083EA89FB89F5
:1008100080810B8C02C0220F331F0A94E2F72095CF
:1008200028232083DF91CF911F910F91FF90EF90AC
:10083000DF90BF90AF900895FC01268D878D30E04A
:10084000205C3F4F281B31092F733070C901089578
:10085000FC01968D878D981719F42FEF3FEF06C096
:10086000878DE80FF11D82A1282F30E0C90108957E
:10087000DC015E969C915E975F968C915F979817CE
:1008800019F42FEF3FEF10C05F968C915F97FD0139
:10089000E80FF11D92A15F968C915F978F5F8F7328
:1008A0005F968C93292F30E0C9010895DC015D9695
:1008B0008C915D97882339F05096ED91FC9151977A
:1008C000808186FFF9CF5D961C920895DC01909699
:1008D0008C919097282F30E02F5F3F4F2F7330700F
:1008E00091968C91919790E028173907C9F39096CB
:1008F0008C919097FD01E80FF11DEE59FF4F608339
:1009000090962C9390975296ED91FC91539720815D
:1009100081E090E05B960C905B9702C0880F991F76
:100920000A94E2F7282B208381E05D968C935D97F3
:100930005096ED91FC91519780818064808381E095
:1009400090E0089510920B0210920A0288EE93E054
:10095000A0E0B0E080930C0290930D02A0930E02F1
:10096000B0930F0280E291E0909309028093080215
:100970001092290280912902809328021092270266
:1009800080912702809326028DEC90E090931502CF
:10099000809314028CEC90E09093170280931602DF
:1009A00088EC90E0909319028093180289EC90E013
:1009B00090931B0280931A028AEC90E090931D02A0
:1009C00080931C028EEC90E090931F0280931E0295
:1009D00084E08093200283E08093210287E080936B
:1009E000220285E08093230281E08093240208950F
:1009F000CF93DF930E946E0982EB92E00E948E06F5
:100A00000E949101C5E5D3E00E94A6012097E1F381
:100A10000E945503F9CFCF92DF92EF92FF920F938E
:100A20001F93CF93DF937C016B018A01C0E0D0E07C
:100A30000FC0D6016D916D01D701ED91FC91019030
:100A4000F081E02DC7010995C80FD91F0150104052
:100A50000115110571F7CE01DF91CF911F910F9113
:100A6000FF90EF90DF90CF900895282F8091AC02F7
:100A70008823C1F057FF1AC015C028989093AB0285
:100A80008091F1008193E217F307B9F74115510501
:100A900039F08091F200882319F48BE68093E80006
:100AA000AFBF02C04FEF5FEFCA010895AFB7F89430
:100AB00027702093E9008091F200282F30E024175E
:100AC00035070CF4A901FB019B01240F311D94E6AD
:100AD000DACFDF93CF930F92CDB7DEB7BE016F5F52
:100AE0007F4F41E050E00E943505019719F02FEF4C
:100AF0003FEF03C08981282F30E0C9010F90CF91CB
:100B0000DF910895FF920F931F93F82E142F052F56
:100B10004091AF025091B002212F302FC901DC016A
:100B2000FB016EEF29C0F7FE02C0949101C09081D5
:100B30002091AD023091AE0224173507ACF48091BC
:100B4000E8008570E1F38091E80082FF03C02FEF99
:100B50003FEF17C09093F100C90101968F73907019
:100B6000892B11F46093E8002F5F3F4F3093AE0262
:100B70002093AD02119731961097A9F6812F902FEF
:100B80009C01C9011F910F91FF9008951F93782F29
:100B9000E92F162F2091AD023091AE02A091AF0245
:100BA000B091B0022A173B07C4F48091E800857029
:100BB000E1F38091E80082FD16C0812F90E001965C
:100BC000880F991F8093F100C90101968F7390706F
:100BD000892B19F48EEF8093E8002F5F3F4F3093FD
:100BE000AE022093AD022091AD023091AE022A17E1
:100BF0003B07A4F48091E8008570E1F38091E80060
:100C000082FD12C083E08093F100C90101968F73C9
:100C10009070892B19F48EEF8093E8002F5F3F4F7F
:100C20003093AE022093AD024091AD025091AE02DE
:100C3000872F9E2FFC0170E06EEF43C094914A17FE
:100C40005B07A4F48091E8008570E1F38091E800EF
:100C500082FF02C020E00DC09093F100CA0101960E
:100C60008F739070892B11F46093E8004F5F5F4F92
:100C700021E04A175B07A4F48091E8008570E1F356
:100C80008091E80082FF02C080E00DC01092F10068
:100C9000CA0101968F739070892B11F46093E8005C
:100CA0004F5F5F4F81E0319690E030E082239323E5
:100CB000892B31F45093AE024093AD0280E009C01D
:100CC0007F5F711708F4BACF5093AE024093AD0224
:100CD00081E01F9108959C018091E80082FFFCCF84
:100CE000F901260F311D03C08091F1008193E217B5
:100CF000F307D1F7289884E68093AB028BEF8093BB
:100D0000E800CB0108958093E9008091F2008823E8
:100D100019F08AE38093E800089508951092AC02D8
:100D200081E08093D70080EA8093D80082E189BD7A
:100D300009B400FEFDCF61E070E080E090E00E9429
:100D4000C40980E98093D8008CE08093E20010927F
:100D5000E000559A209A08955F926F927F928F9249
:100D60009F92AF92BF92CF92DF92EF92FF920F933A
:100D70001F93CF93DF93E82E842E752E8091AC02C3
:100D8000882371F18B01242F352FC901EC01AAEFC3
:100D9000FA2EF7E09F2E9E20E0E45E2E8E2D90E04E
:100DA00070E2A72EB12CA822B9226AE3662E50E485
:100DB000C52ED12CC822D92258C09FB7F894909242
:100DC000E9008091E80085FD02C020E004C0809128
:100DD000F200252D281B9FBF222361F4FA9419F4F9
:100DE0002FEF3FEF4DC061E070E080E090E00E94A7
:100DF000C4093BC0822F90E0C817D9070CF42C2FF0
:100E0000C21BD1094FB7F8949092E900A114B10424
:100E100021F406C01092F10021502223D9F719C005
:100E2000E7FC03C0F801922F10C0C801322F06C0A2
:100E3000FC010196E491E093F10031503323C1F7B6
:100E400006C081918093F10091509923D1F7020F50
:100E5000111D8091E80085FF05C0209729F4C11479
:100E6000D10411F06092E8004FBF209709F0A5CFA0
:100E70005D9884E68093AA02282D372DC9019C0134
:100E8000C901DF91CF911F910F91FF90EF90DF90FB
:100E9000CF90BF90AF909F908F907F906F905F901A
:100EA00008951F920F920FB60F9211242F933F9324
:100EB0004F935F936F937F938F939F93AF93BF9362
:100EC000EF93FF938091E1001092E100982F83FF50
:100ED0000FC01092E90081E08093EB001092EC00CB
:100EE00082E38093ED001092AC0288E08093F000E2
:100EF00092FF34C083E08093E9008091F200882360
:100F000019F08AE38093E8008FB7F89492E0909309
:100F1000E9009091F2008FBF992321F08AEB91E0D4
:100F20000E9494028091AA02882351F08091AA0223
:100F300081508093AA028091AA02882309F45D9AC5
:100F40008091AB02882351F08091AB028150809355
:100F5000AB028091AB02882309F4289AFF91EF91AC
:100F6000BF91AF919F918F917F916F915F914F91C1
:100F70003F912F910F900FBE0F901F9018950F93D8
:100F80001F93DF93CF930F92CDB7DEB719828E01F7
:100F90000F5F1F4FC8010E94BB02C8010E94630B74
:100FA000898190E00F90CF91DF911F910F9108956B
:100FB0001F920F920FB60F921124EF92FF921F9380
:100FC0002F933F934F935F936F937F938F939F9351
:100FD000AF93BF93EF93FF93DF93CF93CDB7DEB77C
:100FE0006197DEBFCDBF1092E9008091E80083FFDA
:100FF00014C1FE0131969E01275F3F4F03C08091CF
:10100000F1008193E217F307D1F7289884E68093E3
:10101000AB0282EF8093E800998197FF05C0809131
:10102000E80080FFFCCF03C08EEF8093E800292FFB
:1010300030E0C90180769070892B09F0C7C08A81A1
:10104000882329F41092F1001092F100DBC0813066
:1010500009F4D8C0833009F4D5C0853049F48091B3
:10106000E80080FFFCCF8B8180688093E300CAC0DA
:10107000863009F081C01C81EF80F8841230C1F500
:101080001092E9001092AE021092AD021092B002DE
:101090001092AF020E94BF0799E0FE013996DF016E
:1010A000292F1D922A95E9F799871A8791E09E8743
:1010B00090E8988B9AEF998B2091AD023091AE0217
:1010C000275F3F4F3C872B878D871092E900109256
:1010D000AE021092AD02F092B002E092AF0280E058
:1010E000BF0149E050E00E9482050E94BF078AC00C
:1010F0001092E9001092AE021092AD02F092B0028E
:10110000E092AF02123241F482E290E00E945B0B67
:10111000892B09F47BC076C0113079F488E0E81699
:10112000F10419F481E08093B1028091B102882327
:1011300009F070C0EFE9F1E018C0133009F066C0A3
:101140008B81882319F4EEE7F1E00FC0823021F49F
:1011500082E891E060E106C0813009F057C083E980
:1011600091E06BE00E94C6054BC0449180E8BF014E
:1011700050E00E94820546C0873009F447C088309D
:1011800021F481E08093F1003DC08930D9F52370CE
:101190003070232BD9F5E4ECF1E091E031E026E367
:1011A0009093E9003093EB0084918093EC002093BE
:1011B000ED009F5F3196953099F78EE78093EA00B6
:1011C0001092EA008B818093AC021CC08F819885BD
:1011D0001092E9001092AE021092AD029093B0020C
:1011E0008093AF028D81882329F4CE0101960E945D
:1011F000C70206C0823051F4CE0101960E942C0A2B
:10120000882321F08EEF8093E80007C081E280936D
:10121000EB0003C0E1EBF1E0A8CF6196DEBFCDBFEC
:10122000CF91DF91FF91EF91BF91AF919F918F91FE
:101230007F916F915F914F913F912F911F91FF90FF
:10124000EF900F900FBE0F901F9018951F920F9266
:101250000FB60F9211242F933F938F939F93AF93C9
:10126000BF938091B7029091B802A091B902B0915A
:10127000BA023091BB020196A11DB11D232F2D5F33
:101280002D3720F02D570196A11DB11D2093BB02D3
:101290008093B7029093B802A093B902B093BA02B8
:1012A0008091B3029091B402A091B502B091B602C0
:1012B0000196A11DB11D8093B3029093B402A09337
:1012C000B502B093B602BF91AF919F918F913F91BC
:1012D0002F910F900FBE0F901F901895789484B5A2
:1012E000826084BD84B5816084BD85B5826085BD22
:1012F00085B5816085BDEEE6F0E080818160808308
:10130000E1E8F0E0108280818260808380818160EA
:101310008083E0E8F0E0808181608083E1E9F0E0B3
:10132000808182608083808181608083E0E9F0E059
:10133000808181608083E1ECF0E080818460808343
:10134000808182608083808181608083E3ECF0E033
:10135000808181608083E0ECF0E080818260808326
:10136000E2ECF0E0808181608083EAE7F0E0808158
:1013700084608083808182608083808181608083BB
:101380008081806880830895EF92FF920F931F936E
:10139000CF93DF937B018C013FB7F8948091B30228
:1013A0009091B402A091B502B091B60226B5A89B67
:1013B00005C02F3F19F00196A11DB11D3FBFBA2FE7
:1013C000A92F982F8827820F911DA11DB11D52E0D2
:1013D000880F991FAA1FBB1F5A95D1F7EC0130C087
:1013E0000E946F0B3FB7F8948091B3029091B402C2
:1013F000A091B502B091B60226B5A89B05C02F3FBB
:1014000019F00196A11DB11D3FBFBA2FA92F982F2A
:101410008827820F911DA11DB11D32E0880F991FF1
:10142000AA1FBB1F3A95D1F78C1B9D0B885E93407A
:10143000B8F20894E108F10801091109C851DC4F1C
:10144000E114F1040105110559F6DF91CF911F91C7
:101450000F91FF90EF900895FC0191818081813A76
:1014600031F4913089F080E0933089F40DC08132FD
:1014700069F49B3021F482818093080105C09A3081
:1014800029F482818093090181E0089580E0089524
:10149000EF92FF920F931F938C01E62EDC01ED91EA
:1014A000FC910480F581E02D0995F82ED801ED918D
:1014B000FC910680F781E02DC8016E2D09958F2DD6
:1014C00090E01F910F91FF90EF9008951092BC0251
:1014D0001092C0021092BF0280E391E09093BE028E
:1014E0008093BD020895EF92FF920F931F93DF93B5
:1014F000CF930F92CDB7DEB789838B017A0184E059
:10150000BE016F5F7F4F41E050E00E94AC0684E473
:10151000B801A7010E94AC060F90CF91DF911F91F7
:101520000F91FF90EF90089582E048E050E00E9414
:10153000730A0895FC01168217821086118612869E
:10154000138614823496BF010E94940A0895DC0128
:10155000683810F0685829C0E62FF0E067FF13C024
:10156000E058F04081E090E002C0880F991FEA95B2
:10157000E2F7809514962C911497282314962C93B7
:10158000149760E012C0EA5BFD4F6491662319F482
:1015900020E030E01DC067FF08C014968C911497BE
:1015A0008D7F14968C9314976F77FD0190E06623DE
:1015B00021F08681861709F416829F5F3196963056
:1015C000B1F7CD011496BD010E94940A21E030E0EC
:1015D000C9010895CF93DF93DC01683810F0685893
:1015E00025C0E62FF0E067FF12C0E058F04081E030
:1015F00090E002C0880F991FEA95E2F714962C91AB
:101600001497282B14962C93149760E00FC0EA5B74
:10161000FD4F64916623D9F167FF08C014968C9141
:101620001497826014968C9314976F7716968C910A
:1016300016978617A9F117968C911797861781F13F
:1016400018968C911897861759F119968C911997BD
:10165000861731F11A968C911A97861709F11B9605
:101660008C911B978617E1F0ED01E0E0F0E09E2FF2
:101670008E81882321F4EA0FFB1F668306C09F5FDB
:1016800031962196E630F10591F7963049F481E0E4
:1016900090E013969C938E93129720E030E007C061
:1016A000CD011496BD010E94940A21E030E0C901E9
:1016B000DF91CF91089580E868EC71E045E650E055
:1016C0000E9482050895FC0180818F5F808380E8FD
:1016D0006DE272E049E150E00E94820508950895AC
:1016E000A1E21A2EAA1BBB1BFD010DC0AA1FBB1F26
:1016F000EE1FFF1FA217B307E407F50720F0A21B98
:10170000B30BE40BF50B661F771F881F991F1A9404
:1017100069F760957095809590959B01AC01BD012E
:10172000CF010895EE0FFF1F0590F491E02D09946D
:04173000F894FFCF5B
:1017340000E1000000000000010100000000680258
:101744000B051702330223029002940200000000EA
:1017540066040B051C043804280456040000000029
:0A176400480A0B05EA0AA70A9A0AD0
:00000001FF
